:020000040002F8
:10600000C8A20020C1630200C9630200CB63020082
:10601000CD630200CF630200D163020000000000E4
:10602000000000000000000000000000D363020038
:10603000D563020000000000D7630200D9630200AC
:10604000D96F0200DB63020065770200DB630200A8
:10605000DB630200DB630200696D0200DB630200A8
:10606000DB630200DB630200DB630200DB63020030
:10607000DB630200DB630200DB630200DB63020020
:10608000DB6302007D700200DB630200DB63020061
:106090003F740200DB63020043740200DB63020012
:1060A000DB630200DB630200DB630200DB630200F0
:1060B000DB630200DB630200000000000000000060
:1060C000DB630200DB630200DB630200DB630200D0
:1060D000A1700200DB630200DB630200000000002D
:1060E00000000000000000000000000000000000B0
:1060F00000000000000000000000000000000000A0
:10610000000000000000000000000000000000008F
:10611000000000000000000000000000000000007F
:10612000000000000000000000000000000000006F
:10613000000000000000000000000000000000005F
:10614000000000000000000000000000000000004F
:10615000000000000000000000000000000000003F
:10616000000000000000000000000000000000002F
:10617000000000000000000000000000000000001F
:10618000000000000000000000000000000000000F
:1061900000000000000000000000000000000000FF
:1061A00000000000000000000000000000000000EF
:1061B00000000000000000000000000000000000DF
:1061C00000000000000000000000000000000000CF
:1061D00000000000000000000000000000000000BF
:1061E00000000000000000000000000000000000AF
:1061F000000000000000000000000000000000009F
:10620000DFF80CD000F0A0FC0048004749FF020076
:10621000C8A2002030B450E8012F93B2C4892344AF
:106220008489A34228BF1B1B0489A34202BFBFF37A
:106230002F8F002007E0C3EA020340E80134002C5E
:10624000E9D14FF001000A6030BC704750E8012FDF
:10625000C2EA024240E801210029F7D1704730B478
:1062600050E8022F1FFAA2F3C488A34202BFBFF373
:106270002F8F00200DE0C48923448489A34228BFC6
:106280001B1BC2EA034340E80234002CE8D14FF064
:1062900001000A6030BC704750E8022FC2EA224277
:1062A00040E802210029F7D17047034653E8022F46
:1062B000D988B2EB324F4FF0000017BF92B241EADB
:1062C000014142EA014104E05A68B2EB324F08BF93
:1062D000012043E80212002AE8D1704730B4044696
:1062E00054E8000F0D4644E80053002BF8D1156028
:1062F00030BC704730B4044654E8000F40EA010552
:1063000044E80053002BF7D1156030BC704730B41F
:10631000044654E8000F00EA010544E80053002B4E
:10632000F7D1156030BC704730B4044654E8000F14
:1063300080EA010544E80053002BF7D1156030BC1A
:10634000704730B4044654E8000F00EB010544E800
:106350000053002BF7D1156030BC704730B40446B1
:1063600054E8000FA0EB010544E80053002BF7D1DF
:10637000156030BC704770B404464FF0000054E81C
:10638000006F0D68AE4207BF44E80023012044E8D7
:1063900000630E60002B1CBF0020F0E770BC70474C
:1063A00030B4044654E8000F88422CBF451A054615
:1063B00044E80053002BF5D1156030BC7047000055
:1063C0000648804706480047FEE7FEE7FEE7FEE78F
:1063D000FEE7FEE7FEE7FEE7FEE7FEE749740200A0
:1063E000016202002DE9F05F0546002092469B46BF
:1063F00088460646814640241BE0284641464746DB
:10640000224600F07EF953465A46C01A914110D3F5
:1064100011461846224600F016F82D1A67EB0108BF
:106420004F4622460120002100F00DF817EB00092D
:106430004E41201EA4F10104DFDC484631462A46C5
:106440004346BDE8F09F202A04DB203A00FA02F11F
:10645000002070479140C2F1200320FA03F3194352
:10646000904070470048704704D003000649074A2F
:106470000868504343F239021044086040087047EE
:106480000149086070470000A42D00206D4EC641F0
:1064900040EA01039B0703D009E008C9121F08C0A6
:1064A000042AFAD203E011F8013B00F8013B521E26
:1064B000F9D27047D2B201E000F8012B491EFBD29D
:1064C00070470022F6E710B513460A4604461946FF
:1064D000FFF7F0FF204610BD30B505462A460B46B3
:1064E00012F8010B13F8014B08B1A042F8D01CB10F
:1064F000002802D06D1CF1E7284630BD10B50446D7
:1065000004E00B7800F8013B03B1491C521EF8D29D
:10651000204610BD421C10F8011B0029FBD1801A37
:10652000704730B504460020034600E05B1C9342F0
:1065300003D2E05CCD5C401BF8D030BD034611F8BF
:10654000012B00F8012B002AF9D11846704770B5CD
:10655000064601F0F5F9046805460A220021304696
:1065600000F0DFF82C6070BD2DE9FE4F81EA0304D6
:1065700004F0004421F0004100944FF0000B23F0A0
:10658000004350EA01045ED052EA03045BD0C3F337
:106590000A54C1F30A552C44A4F2F3340194A0FB2D
:1065A0000254C1F3130141F48011C3F3130343F404
:1065B000801301FB024400FB034E840A970A44EA5D
:1065C000815447EA8357A4FB076802958D0A05FBAF
:1065D00007854FEA932C04FB0C542705029D4FEAD4
:1065E000065847EA1637B5EB08056EEB070C870E21
:1065F000920E47EA811742EA8312A7FB0201B6EB2B
:106600000B0164EB00042B0D43EA0C335E1844EBE2
:106610001C50DA465146E7FB0201C5F313044FEA6A
:106620000B3343EA14534FEA0432019C43EA060356
:10663000A4F10C040294009CCDE900B400F0C8F869
:1066400003B0BDE8F08F00200146F9E70EB540F237
:10665000334102910021CDE900110A460B4600F0BA
:10666000B7F803B000BD70B5C1F30A5201F00045A0
:106670000024C1F3130140F2FF3341F480119A4228
:1066800001DA002070BD40F233439A42A2F2334255
:1066900003DC524200F035F800E090402C43F1D08A
:1066A000404270BDC1F30A5210B5C1F3130140F26C
:1066B000FF3341F480119A4201DA002010BD40F20C
:1066C00033439A42A2F2334203DC524200F019F8FB
:1066D00010BD904010BD30B50B4601460020202271
:1066E000012409E021FA02F59D4205D303FA02F5DF
:1066F000491B04FA02F52844151EA2F10102F1DC3F
:1067000030BD202A04DB203A21FA02F00021704734
:1067100021FA02F3D040C2F1200291400843194609
:1067200070472DE9F04791460E4680460446002505
:1067300014F8017B2FB1FFF795FE0068C05DC0071C
:10674000F6D12B2F02D02D2F1ED0641E4A46314683
:10675000204600F01DFA26B13268A24201D1C6F8E7
:1067600000806A054FF0020418D50023D0EB030522
:1067700063EB01025D1B934109DB0023D0EB0300B7
:1067800063EB0101BDE8F08745F48065DEE701F0C9
:10679000D7F8046000204FF00041F3E7021E71F1CA
:1067A0000002EFDA01F0CCF804604FF0FF3041084E
:1067B000E8E710B5141E73F1000408DA401C41F13B
:1067C000000192185B411A4301D120F0010010BD75
:1067D0002DE9F04D92469B4611B1B1FA81F202E0EB
:1067E000B0FA80F220329046FFF72DFE04460F46A5
:1067F00040EA0A0041EA0B0153465A46084313D0C7
:10680000114653EA010019D0C8F140025046FFF783
:1068100078FF05460E46504659464246FFF713FE9E
:10682000084305D0012004E020463946BDE8F08D3C
:106830000020054346EAE0762C4337430A98630577
:10684000E40AA0EB08000022FD0A44EA47540A309B
:1068500002D500200146E9E7010510196941DDE98B
:10686000084500196941BDE8F04DA2E72DE9FE4F4A
:10687000804681EA0300C00F0C46009021F00041E1
:1068800023F00045B8EB0200A94105D2404621465D
:1068900090461C460B46024623F00040104347D06A
:1068A000270DC7F30A00C3F30A510290401A019062
:1068B00040286BDAC3F3130040F4801B0098924623
:1068C00020B10023D2EB030A63EB0B0B019859466E
:1068D000C0F140025046FFF7B6FD06460D46504651
:1068E0005946019A00F042F910EB0800614100247A
:1068F00087EA115284EAE7731A4340D0009A62B3E0
:10690000019A012A4FEA075215DC001B61EB0201D4
:106910004FF0004202EA0752CDE90042001C41F567
:10692000801132462B46FFF753FF03B0BDE8F08FCE
:1069300040462146F9E7001B61EB0201001C41F5CE
:10694000801300185B412018A2F5001747EB0301E4
:1069500040EAD570B6196D4111E06D084FEA360670
:1069600045EAC0754FEA0752001B61EB0201001CAB
:1069700041F5801149084FEA300000195141324673
:106980002B4603B0BDE8F04FFFF713BF009801227C
:1069900040000023D0EB020263EBE0730098214635
:1069A0004FEAE074B8EB000061EB0401E9E783F023
:1069B00000435BE781F0004158E72DE9F04D81EAA3
:1069C000030404F0004B21F0004514464FF0000A88
:1069D00023F0004150EA050220D054EA01021DD004
:1069E000C5F30A570246C5F31303C1F31300C1F3FD
:1069F0000A5640F4801543F48013A7EB0608101BD9
:106A0000D64608F2FD3873EB050002D308F1010801
:106A100001E092185B41B8F1000F03DA0020014653
:106A2000BDE8F08D00204FF48011064684460EE04C
:106A3000171B73EB050705D3121B63EB0503064316
:106A40004CEA010C49084FEA300092185B4150EAC9
:106A50000107EDD152EA030012D082EA040083EA72
:106A60000501084305D0101BAB4106D201220023CB
:106A700006E000224FF0004302E06FF001025310E5
:106A80001AEB06004CEB085110EB0A0041EB0B012E
:106A9000BDE8F04DFFF78DBE70B521F00043034314
:106AA0000CD0C1F30A550024D5EB040564EB0403B4
:106AB000D617AD1AB34102DB0020014670BD201885
:106AC00041EB025170BD0EB5C10F80EAE070084481
:106AD000CA07002140F233438DE80E000A460B46F8
:106AE000FFF776FE03B000BDC1F30A52C1F31301F4
:106AF00040F2FF3341F480119A4202DA002001464D
:106B0000704740F233439A42A2F2334202DC5242CF
:106B1000FFF7F7BDFFF797BC30B5041E71F1000415
:106B200004DB4FF00044404264EB0101141E73F19A
:106B3000000405DB1C464FF00043524263EB0403A4
:106B4000994208BF904230BD064C074D06E0E06810
:106B500040F0010394E8070098471034AC42F6D3A4
:106B6000FFF752FB40DE030060DE0300202A06DB55
:106B7000CB17203A41FA02F043EAE07306E041FA0B
:106B800002F3D040C2F120029140084319467047F9
:106B90002DE9F74F4FF00009009C1546CA4614F83E
:106BA000010B302801D0ADB115E014F8010B4FF006
:106BB0000109782803D0582801D04DB10BE00DB160
:106BC000102D08D14FF00009102514F8010B02E038
:106BD000082500E00A2500273E46B8464FEAE57B37
:106BE00016E0A5FB07230BFB073105FB080005FB9F
:106BF0000616030CD71846F100061FFA80F8381E57
:106C00004FF0010976F5803000D3CA4614F8010B25
:106C1000294600F06FF80028E3DA019838B1B9F19D
:106C2000000F01D0641E00E0009C01980460BAF1DE
:106C3000000F08D000F084FE02210160C81E01464A
:106C400003B0BDE8F08F310441EA174148EA07403C
:106C5000F6E72DE9F04D00231A461B1A8A4103DBA3
:106C600000200146BDE8F08DC1F30A52C1F31301C3
:106C700041F480154FF0000BD10702D100186D418F
:106C8000521E0027044640F2FF11384601EB620A0B
:106C90003E468046024600204FF48011FFF731FD4A
:106CA000C2197141BB1846EB0100B4EB030C75EB44
:106CB000000C04D3E41A65EB000517460E462419B0
:106CC00008F101006D4180463428E3DDF91946EBF7
:106CD0000600091BA84103D24FF0FF32134601E022
:106CE000002213461BEB070046EB0A51BDE8F04DAE
:106CF000FFF75FBD3A2800D2303820F02002412A49
:106D000001D3A2F13700884201D34FF0FF30704722
:106D100070B58C1810F8015B15F0070301D110F85D
:106D2000013B2A1106D110F8012B03E010F8016B8A
:106D300001F8016B5B1EF9D12B0705D40023521E0D
:106D40000DD401F8013BFAE710F8013BCB1A921C75
:106D500003E013F8015B01F8015B521EF9D5A14273
:106D6000D8D3002070BD00002DE9F04700268AB07E
:106D7000DFF85091B0464FF48075012437460696EF
:106D800028460BF07DFD38B1D9F80403204203D02A
:106D900028460BF06BFD26432D1D64007F1CADB211
:106DA000082FEDD34FF4BE7420460BF069FD48B1B7
:106DB00020460BF05BFD46F0004606AA01210020AC
:106DC0000BF040FD404D16F0FF0F15D001270024B9
:106DD00037420DD009EB8401D1F81005D1F8101518
:106DE000C0F3042055F82420C1F3014102B19047BB
:106DF0007F00641C082CEBD3002E5FDA4FF0FF30CD
:106E0000CDF8108054E0281910F8507F90F9000058
:106E100027F0C008401C3BD007A940460AF052FCAE
:106E200010B34FEA9719404604F03AFD55F8207028
:106E30001FB1B9F1030F03D006E0B9F1030F27D159
:106E400004A940460AF046FC4FF0A04101EB88003F
:106E5000D0F8000706A9C0F3014A40460AF032FC08
:106E600018B1BAF1020F03D012E0BAF1030F0FD13B
:106E7000B9F1030F08D1BAF1020F1DD0022140462B
:106E80000BF0CEFC761CF6B217B149464046B84727
:106E9000641C042CB7D3002E10D06A4601210020B8
:106EA0000BF0D0FC06990098884207D00690049811
:106EB000002634460790A6E70321E0E70AB0BDE8C4
:106EC000F087000000600040CC4E00202DE9F0412A
:106ED000C0B01D46DDF8188116460C46074640290D
:106EE00004D93AAA00F014F93AAF142440211AA8A0
:106EF000FFF7E7FA40212AA8FFF7E3FA22463946CE
:106F00001AA8FFF7C5FA224639462AA8FFF7C0FAA1
:106F100000201AA92AAA0B5C83F036030B54135CD9
:106F200083F05C031354401C4028F4DB684600F0F7
:106F30003DFA40221AA9684600F001F92A46314676
:106F4000684600F0FCF84146684600F04DFA684695
:106F500000F02CFA40222AA9684600F0F0F814222A
:106F60004146684600F0EBF84146684600F03CFABE
:106F700040B0BDE8F08100F01F02012191404009BE
:106F8000800000F1E020C0F88012704700F01F027E
:106F9000012191404009800000F1E020C0F800117B
:106FA000704700F01F02012191404009800000F16C
:106FB000E020C0F8001270474907090E002806DAE1
:106FC00000F00F0000F1E02080F8141D704700F180
:106FD000E02080F8001470472DE9F0414FF48076EE
:106FE00030460AF098FD234CB50560B130460AF0F2
:106FF00099FD0120C5F80803607920B9012060716E
:107000002168002088474FF4827630460AF083FDDD
:1070100040B130460AF086FD0220C5F80803216819
:10702000012088474FF4887630460AF074FD40B15D
:1070300030460AF077FD1020C5F8080321680220C9
:1070400088474FF4867738460AF065FD00280ED051
:1070500009480026066038460AF064FD0820C5F895
:107060000803A6712168BDE8F04103200847BDE888
:10707000F0810000482C0020340C0040074800211B
:10708000C0F84011C0F84411C0F84811C0F84C11C4
:10709000C0F80011C0F8041110F024B8001001402D
:1070A00004220021014806F017B900000040024008
:1070B00000F05EBB70B50E46144900EB400001EBDA
:1070C000C0051446E86A183520B101280FD00228FF
:1070D00005D113E0284600F07FFBA04201D2002436
:1070E00011E022463146284600F0AEFB0BE0284670
:1070F00000F072FBA042F4D20446F2E73146284683
:1071000000F075FB0446204670BD00007858002052
:1071100030B59AB0054614460B46684600F046F96D
:1071200000280AD11A462946684600F008F80028C7
:1071300003D12146684600F057F91AB030BD2DE959
:10714000F04115000E46044614D034B12EB1206E25
:1071500028B103206066BDE8F0810120FBE7606E86
:107160000028F8D104F11E074FF001086D1E01D36D
:10717000606E08B10020EEE7B4F91C003278411CC3
:10718000A183C25560690830606105D1A069401CC7
:10719000A06101D1C4F86480A08B402802D12046B0
:1071A00000F048F8761CE1E770B50446B0F91C0021
:1071B0008023411C0AB204F11E050026A283372851
:1071C000435503DC15E0411CA1834655B4F91C006E
:1071D0004028F8DB204600F02DF802E0411CA18396
:1071E0004655B4F91C003828F8DB06E0411CA183A1
:1071F0004655B4F91C003828F8DBA069010E84F864
:107200005610010C84F85710010A84F8581084F8BD
:1072100059006069010E84F85A10010C84F85B1063
:10722000010A84F85C1084F85D002046BDE87040D7
:10723000AFF300802DE9F04F5B4CD6B06E461ECC0C
:107240008A4693469E460021CDF8544100EB8102C8
:1072500012F81E3F1B0646F82130547843EA0443D7
:1072600046F82130947843EA042346F82130D27856
:10727000134346F82130491C1029E7DB5FF0100169
:1072800006EB810252F80C3C52F8204C634052F855
:10729000384C52F8402C544063404FEAF37246F8A1
:1072A0002120491C5029EBDB026854924368539318
:1072B00084685294C168519105690027B146509580
:1072C00059F8276021EA030806EBF26C03EA04068A
:1072D00046EA080635440CEB05060D4621464FEA02
:1072E000B304564413467F1C3246142FE8DB1426A1
:1072F0004FEA090783EA040857F826C088EA01081C
:107300000CEBF26C4544AC440D4621464FEAB30405
:10731000DC441346761C6246282EEBDB2826B94651
:1073200004EA010859F82670761C07EBF26C44EA6F
:1073300001071F4047EA08073D440CEB05070D46CF
:1073400021464FEAB304774413463A463C2EE7DB26
:107350003C26CC465CF82670761C07EBF26883EA84
:1073600004074F403D4408EB0507559D502E2F4420
:107370000D4621464FEAB30413463A46EADB549ED3
:10738000F2190260539A1A444260529A224482606F
:10739000519A1144C16050992944016100218183AF
:1073A00056B0BDE8F08F0000E4A6030098B10021BC
:1073B000416181618183094A0260094A4260074A4A
:1073C000D2438260064AD243C260064A0166026125
:1073D0004166084670470120704700000123456759
:1073E00089ABCDEFF0E1D2C330B50D46040006D035
:1073F0002DB1606E002803D1206E10B10FE0012086
:1074000030BD2046FFF7D0FE002001462218401C68
:1074100091774028FADB61610120A161206600209C
:1074200020F0030100F003026158C2F10302D20010
:10743000D1402954401C1428F2DB002030BD0FF04D
:107440009FBD0BF0C9BF0000F0B5B5480023021D79
:107450000178101D01254FF0805406290BD11678B4
:10746000360708D10678C6F30316032E06D0042E7D
:1074700004D0052E02D0062907D00EE0B4F824630C
:10748000A84FC6F304263E6002E01678360704D102
:107490000678C6F30316032E02D0062904D00FE0A7
:1074A000A24FA14E7E670EE01678360708D1067807
:1074B000C6F30316032E06D0042E04D0052E02D0E8
:1074C000062907D00EE0D4F84462994FC6F342363D
:1074D0003E6002E01678360704D10678C6F303163C
:1074E000032E02D0062906D011E0924E376827F00D
:1074F000807737600EE01678360708D10678C6F335
:107500000316032E06D0042E04D0052E02D0062921
:107510000AD011E04FF08046C6F80C31C6F81031A1
:10752000834E361F336002E01678360704D10678A2
:10753000C6F30316032E02D0062905D00CE07C4FBB
:10754000032664373E600AE01678360704D10678D1
:10755000C6F30316032E02D006290DD014E0764F91
:1075600005263E60744E78363560734E08363360BB
:107570003F263F1D3E6002E01678360704D10678AC
:10758000C6F30316052E02D0062957D062E06B4ED3
:1075900036686B4F3E60694E361D36683F1D3E6053
:1075A000664E083636683F1D3E60644E0C363668BF
:1075B0003F1D3E60614E103636683F1D3E605F4E97
:1075C000143636683F1D3E605C4E183636685C4F98
:1075D00020373E60594E1C3636683F1D3E60574E80
:1075E000203636683F1D3E60544E243636683F1DB7
:1075F0003E60524E283636683F1D3E604F4E2C3658
:1076000036683F1D3E604D4E303636684C4F403731
:107610003E604A4E343636683F1D3E60474E38362F
:1076200036683F1D3E60454E3C3636683F1D3E6025
:10763000424E403636683F1D3E6002E016783607FF
:1076400008D10678C6F30316032E06D0042E04D004
:10765000052E02D0062907D019E0D4F85812394A6D
:1076600001F04F01116002E0117809070FD1007895
:10767000C0F30310032803D0042801D0052806D145
:1076800031480168C90702D06FF001010160D4F8E8
:107690003001062808D1D4F83401062804D12B483B
:1076A000016841F48061016022487438016841F446
:1076B00070010160BFF34F8FBFF36F8F4FF0102148
:1076C000D1F80002002803DBD1F80402002822DAF6
:1076D0001F4A15601F480468002CFCD01524C1F80F
:1076E00000420568002DFCD0C1F804420168002961
:1076F000FCD0136001680029FCD0BFF34F8F0D4808
:10770000F0380168144A01F4E06111430160BFF3ED
:107710004F8F00BFFDE7124910480860F0BD000020
:10772000E00F00F0403501400DF0ADBA00C0074059
:107730003C050040FCED00E0105600400404001041
:1077400020C50040E40E0040000400403C1700400B
:1077500004E5014000E401400400FA050090D00374
:10776000202D00200148006800470000542C002014
:1077700010B5124C02202061606111A0A06104F1DB
:107780007800E0614FF4006020620020A062606237
:107790000BA1A164E06204F67801E1641021A06508
:1077A000C4E91410E06509A1E01DFEF7C7FE08A1B9
:1077B0002046FEF7C3FE2020A07110BD785800209F
:1077C0005465726D696E616C000000005254540083
:1077D00053454747455200000269C1688A4203D8B1
:1077E0008068401A104400E0501A401E70472DE98E
:1077F000F047C4681746894606464FF000083069CE
:10780000A04201D9051B02E0B168201A0D1AB06828
:107810006D1E001BA84200D80546BD4200D33D4660
:1078200070682A4620444946FEF732FEB0687F1B46
:107830002C44A844A944A04200D10024F460002FA5
:10784000DDD14046BDE8F0872DE9F0410446884689
:10785000D4E90207C51BE168606816460844B542D2
:1078600006D94146FEF714FEB819E060BDE8F08184
:107870002A464146FEF70CFE761B08EB0501324610
:107880006068FEF705FEE660F0E700000FB41CB587
:107890000246002007AC00290BD0491ECDE900218B
:1078A000054B6A462146069801F030F8009A0021FF
:1078B00011701CBC5DF814FB3B9002000FB4084B28
:1078C00010B504A902AA039801F020F8044602A901
:1078D000002001F0BDFB204610BC5DF814FB000049
:1078E000519002007CB5044600201D461646002932
:1078F0000BD0491ECDE90041044B6A46294630466B
:1079000001F004F8009A002111707CBD3B90020048
:1079100003B401984100009850EAC12018BF042028
:107920004A0D18BF40F0010040F2FF72B2EB515F08
:1079300008BF40F00200012808BF052002B07047D0
:1079400000487047A82D00202DE9F04D2DED040BC7
:107950002DED0E8B96B0DDE92550279CDDF890A02B
:1079600025F0004624F00048BAF1000F14BF0121B1
:10797000002101EB4502FC4953184A1093422AD3D7
:10798000002814BF0123002303EB44030B44F749F1
:107990008B4220D358EA00019FEDF59B76D0DFF8AB
:1079A000D8B35D4503D1BAF1000F05D188E0BAF133
:1079B000000F08BF002100D0012101EB450111F5A6
:1079C000001F08D8002814BF0121002101EB440149
:1079D00011F5001F0BD99DED261B9DED240B16B054
:1079E000BDEC0E8B04B0BDE8F04D00F069BE002781
:1079F000002DBCBFE149884521DAE1498845A8BF8F
:107A000002271CDAC3451ADCDE4901EB2851142990
:107A100008DDC1F1340220FA02F101FA02F28242D9
:107A20000DD108E058B9C1F1140228FA02F101FAA7
:107A300002F2424503D101F00101C1F1020756EA09
:107A40000A0124D1002C22DA002D18BF022F01D008
:107A5000012F0AD0022000F091FE16B0BDEC0E8B73
:107A600004B0BDE8F04D00F013BE022000F086FE29
:107A700000F00EFE51EC100B81F0004141EC100BB8
:107A800016B0BDEC0E8B04B0BDE8F08D18E09FED94
:107A9000BEAB9FEDBF8B002871D1B848804522D185
:107AA00005F1804010F5801008BFBAF1000F07D033
:107AB000B3450ADC002CA8BF9DED260BE0DA0DE0F3
:107AC000B0EE490AF0EE690ADAE7002C06DA9DED1D
:107AD000260B51EC100B81F000416FE0AE4878446A
:107AE00090ED000BCCE7D8454DD1002C48DA2EB1F3
:107AF00086423AD1BAF1000F42D126E0BAF1000F26
:107B000013D0022000F03AFE00F0F6FD8DED020BDE
:107B10009DED240B8DED000B10EE900A039961F39F
:107B20001E0003909DED020BAAE78DED02AB9DEDCB
:107B3000240B1AEE901A10EE900A8DED000B61F3F3
:107B40001E0003909DED020B9AE78DED028B9DEDDB
:107B5000240B18EE901A10EE900A8DED000B61F3D5
:107B60001E0003909DED020B8AE709DA9DED240BC0
:107B700051EC190B53EC102BFEF71FFF1EE020E019
:107B80009DED240B7CE786421BDAB4F1804F0DD0CB
:107B9000A4F10050B0F1FF5013D1002D11DB9DED89
:107BA000240B51EC100B0FF05FF807E09DED240B58
:107BB00053EC102B51EC100B00F0C2BC41EC100B3D
:107BC0005EE79DED240B51EC100B05F006F8BAF1C1
:107BD000000FCDE90E0142D19FED710B46B3A6F126
:107BE000E040B0F17F600CD05E4538D1002D00DA66
:107BF000A7B3022F0CBF01204FF0FF30FEF763FF49
:107C0000DCE7002D01DD002C0DDA002D01DD002C5C
:107C10001FDB002D16DA002C14DB012F08BF9FEDAF
:107C2000620B3FF42DAFB0EE4A0AF0EE6A0A27E786
:107C3000022F18BF002D0CD0012F0AD1002DFFF606
:107C40001FAF06E0002DB8BF002C08DA012F3FF46B
:107C500017AFB0EE480AF0EE680A11E71BE001200A
:107C600000EBE57050EA070115D0791EB0EE498AA5
:107C7000F0EE698A084308BF9FED4D8B4E48002502
:107C8000804570DD4D494E48884514DDB0420DDB1E
:107C9000002C19DB2FE0012000F070FD16B0BDECC8
:107CA0000E8B04B0BDE8F04D00F016BDB34502DC0C
:107CB000002C09DC1FE0864202DA002C1BDA03E00C
:107CC0005E452BDD002C16DD022000F057FD00F094
:107CD00013FD8DED020B53EC1A2B51EC180BFEF734
:107CE00043FCCDE900010399019861F31E00039064
:107CF0009DED020BC4E6022000F040FD00F00CFDFB
:107D000010EE901A18EE900A8DED020B8DED008B9F
:107D100061F31E0003909DED020BB1E69DED0E0B8D
:107D200053EC192B51EC100BFEF741FE9FED260B87
:107D3000CDE9080153EC102B9DED080B51EC100B15
:107D4000FEF712FC9FED221B53EC112BFEF732FEC7
:107D50009DED081B53EC112BFEF706FC9FED1E1B3F
:107D600053EC112B3CE08CE0FFFF1F00FFFF0F00E6
:107D7000000000000000F03F0000F03F0000F07F36
:107D80000000404301FCFFFF000000000000F07F06
:107D90000000000000000000265501000000000067
:107DA0000000000000000080000000000000F0FF64
:107DB000000000000000F0BF0000E0410000F043C0
:107DC000FFFFEF3F00000000000000000000D03F78
:107DD000555555555555D53F000000000000E03F72
:107DE000FEF7E8FD9DED080B41EC1A0B53EC102B50
:107DF00051EC100BFEF7B8FB53EC1A2BFEF7B4FB5B
:107E000041EC1A0B9FEDFE0B53EC102B9DED080B74
:107E100051EC100BFEF7A8FB41EC1B0B9FEDFA0B8E
:107E200051EC1A0B53EC102BFEF79EFB41EC1A0B96
:107E30009FEDF70B53EC102B9DED080B51EC100B45
:107E4000FEF792FB53EC1A2BFEF7B1FD41EC1A0B37
:107E500051EC1B0B53EC1A2BFEF708FD0690CDE9F5
:107E600006519DED060B53EC1B2B51EC100BFEF74E
:107E70009EFD53EC1A2BFEF79DFD41EC100B00F01C
:107E8000A1B90020B6F5801F0EDA9FEDE30B53EC8D
:107E9000102B9DED0E0B51EC100BFEF765FBCDE9A1
:107EA0000E016FF034000E4600EB2650A0F2FF37B3
:107EB000C6F31300DA4940F07F6646F04056884228
:107EC000D8BF002408DDD7498142C8BF012403DCA4
:107ED0000024A6F580167F1CD348784400EBC4002C
:107EE0000F9690ED00CB9DED0E0B53EC1C2B51EC3F
:107EF000100BFEF75CFD9DED0E0B41EC1B0B53ECE4
:107F00001C2B51EC100BFEF7B1FC41EC100B51ECAB
:107F1000190B53EC102BFEF750FD41EC1D0B51ECEF
:107F20001B0B53EC1D2BFEF71FFB41EC1A0BBF483C
:107F30008DED10AB7844109590ED000B4FF0005094
:107F400040EA660000EB84408DED080B00F5002050
:107F500009909DED080B53EC1C2B51EC100BFEF718
:107F600026FD9DED0E1B53EC112BFEF723FD41EC7E
:107F7000100B53EC102B9DED100B51EC100BFEF77A
:107F8000F3FA9DED080B41EC1C0B53EC102B9DED0F
:107F9000100B51EC100BFEF7E7FA53EC1B2BFEF71E
:107FA00009FD53EC1C2BFEF702FD53EC1D2BFEF7D5
:107FB000DBFA41EC1C0B53EC1A2B51EC1A0BFEF7BD
:107FC000D3FA41EC1B0B9A480621B0EE4B0AF0EEB7
:107FD0006B0A784400F0E0FAB0EE401AF0EE601A56
:107FE000B0EE41DAF0EE61DA53EC1B2B51EC1B0BD7
:107FF000FEF7BAFA53EC1D2BFEF7B6FA9DED100B07
:1080000041EC1B0B53EC1A2B51EC100BFEF72EFC22
:1080100053EC1C2BFEF7A8FA53EC1B2BFEF726FCA7
:108020009DED100B41EC1B0B53EC102B51EC100B86
:10803000FEF79AFA41EC1D0B9FED7FEB53EC1E2BE4
:10804000FEF714FC53EC1B2BFEF710FC0890CDE957
:1080500008519DED080B53EC1E2B51EC100BFEF755
:10806000A6FC53EC1D2BFEF7A2FC53EC1B2BFEF7DA
:10807000A1FC9DED080B41EC1D0B53EC102B9DED6D
:10808000100B51EC100BFEF76FFA41EC1B0B53EC8D
:108090001A2B51EC1D0BFEF767FA9DED080B41EC16
:1080A0001A0B53EC102B51EC1C0BFEF75DFA53EC42
:1080B0001A2BFEF7DBFB41EC1A0B51EC1B0B53ECBC
:1080C0001A2BFEF7D3FB0C90CDE90C519DED0C0B58
:1080D00053EC1B2B51EC100BFEF769FC53EC1A2BE5
:1080E000FEF768FC41EC1B0B9FED550B53EC102B7E
:1080F0009DED0C0B51EC100BFEF736FA41EC1A0B10
:108100009FED510B51EC1B0B53EC102BFEF72CFA8F
:1081100041EC1B0B9FED4E0B53EC102B9DED0C0B0C
:1081200051EC100BFEF720FA53EC1B2BFEF79EFBD5
:1081300041EC100B4848784400EBC40090ED001B64
:1081400051EC100B53EC112BFEF790FB41EC1B0B89
:108150003846FEF7B8FCCDE9080153EC1B2B51EC77
:108160001A0BFEF783FB41EC100B3C48784400EB04
:10817000C40090ED00CB51EC100B53EC1C2BFEF720
:1081800075FB9DED081B53EC112BFEF76FFB069062
:10819000CDE906519DED080B53EC102B9DED060B20
:1081A00051EC100BFEF703FC53EC1C2BFEF7FFFB0E
:1081B00053EC1A2BFEF7FBFB53EC1B2BFEF7FAFBE1
:1081C00041EC100B9DED261B53EC102B8DED001B8D
:1081D00000959DED260B51EC100BFEF7C5F99DEDBA
:1081E000000B41EC1A0B53EC102B9DED260B51ECC0
:1081F000100BFEF7DCFB9DED061B53EC112B2FE063
:10820000000000604715F73FFE822B654715F73FDA
:1082100044DF5DF80BAE543E000000000000404318
:108220008E9803007AB60B001A500100D05001005E
:10823000524F010000000000000000000000084054
:10824000000000E009C7EE3FFD033ADC09C7EE3F3E
:10825000F5015B14E02F3EBEDE4D0100984D01009C
:10826000FEF782F953EC1A2BFEF700FB9DED060B8F
:1082700041EC1A0B53EC102B9DED000B51EC100B45
:10828000FEF772F9CDE90C019DED0C0B51EC1A0BC8
:1082900053EC102BFEF7EAFACDE902010C46AA498D
:1082A0008C422FDB611A084318D19DED0C0B53EC67
:1082B000102B9DED020B51EC100BFEF778FB41ECFF
:1082C0001B0B9FEDA30B51EC1A0B53EC102BFEF77D
:1082D000CDFA53EC1B2BFEF71FFC2DD2022000F031
:1082E0004DFA00F009FA10EE901A18EE900A8DED92
:1082F000020B8DED008B61F31E0003909DED020BD0
:10830000FFF7BEBB944A24F00041914214D3934935
:10831000214408437FF4EFAC9DED0C0B53EC102B84
:108320009DED020B51EC100BFEF741FB53EC1A2BA9
:10833000FEF7F2FB7FF6DFAC24F000408849894A63
:10834000002601EB205182422BDA481C4FF48011A9
:1083500021FA00F02044844AC0F30A517A44A1F281
:10836000FF3192ED000B814A8DED080BCA4020EAE7
:108370000202C0F3130040F48010C1F1140120FA8E
:1083800001F60992002CB8BF76429DED080B53EC24
:10839000102B9DED0C0B51EC100BFEF708FBCDE9FB
:1083A0000C019DED0C0B51EC1A0B53EC102BFEF74E
:1083B0005DFA9FED6F0B0890CDE9085153EC102B3F
:1083C0009DED080B51EC100BFEF7CEF841EC1B0BAA
:1083D0009FED690B53EC102B9DED080B51EC100B2E
:1083E000FEF7C2F89DED0C0B41EC1C0B53EC102B6F
:1083F0009DED080B51EC100BFEF7D9FA53EC1A2B3C
:10840000FEF7D8FA9FED5E1B53EC112BFEF7ACF88C
:1084100053EC1C2BFEF72AFA41EC1A0B51EC1B0B08
:1084200053EC1A2BFEF722FACDE902019DED020B67
:1084300053EC1B2B51EC100BFEF7B9FA53EC1A2B33
:10844000FEF7B8FA9DED020B41EC1A0B53EC102B22
:1084500051EC100BFEF788F8CDE908014A489DED74
:10846000080B0521784400F097F89DED081B51ECAE
:10847000100B53EC112BFEF777F89DED021B53EC1C
:10848000112BFEF797FACDE906019DED020B53EC97
:108490001A2B51EC100BFEF767F853EC1A2BFEF772
:1084A000E5F99FED3B0B41EC1A0B53EC102B9DEDC6
:1084B000060B51EC100BFEF77AFA9DED060B41EC22
:1084C0001B0B53EC102B9DED020B51EC100BFEF728
:1084D0004BF853EC1B2BFEF770FA53EC1A2BFEF7FC
:1084E00066FA9DED021B53EC112BFEF760FA53EC7C
:1084F000192BFEF75FFACDE9020101EB06500115D9
:108500000029C8BF039015DC9DED020B324651ECEB
:10851000100BFEF7C1FAFFF7FBF9042808BF00F0C3
:10852000FBF832469DED020B51EC100BFEF7B4FA4E
:10853000CDE902019DED020B51EC180B53EC102B11
:10854000FEF712F8FFF73ABB000090400000000071
:10855000FE822B654715973C00CC904000346F3F5E
:1085600001FCFFFF0000E03FA84C0100FFFF0F00EF
:1085700000000000432EE63F396CA80C615C20BE71
:10858000EF39FAFE422EE63FF04A010000000000FB
:10859000000000000000004070B504462DED028B85
:1085A0004D1E00EBC500B0EE408AF0EE608A90ED03
:1085B000000B35F0060017D053EC182B51EC100BC4
:1085C000FDF7D2FF41EC100B6D1E04EBC50090EDE2
:1085D000001B51EC100B53EC112BFEF747F941EC4B
:1085E000100B35F00600E7D1022D36D0042D1CD03B
:1085F000062D1CBFBDEC028B70BD53EC182B51EC4B
:10860000100BFDF7B1FF94ED0A1B53EC112BFEF795
:108610002DF953EC182BFDF7A7FF94ED081B53EC35
:10862000112BFEF723F941EC100B53EC182B51ECF6
:10863000100BFDF799FF94ED061B53EC112BFEF781
:1086400015F953EC182BFDF78FFF94ED040B53EC49
:10865000102BFEF70BF941EC100B53EC182B51ECDF
:10866000100BFDF781FF94ED021B53EC112BFEF76D
:10867000FDF853EC182BFDF777FF94ED001B53EC3E
:10868000112BFEF7F3F8BDEC028B41EC100B70BD23
:108690009FED070B10B553EC102B9FED070B51EC22
:1086A000100BFEF78AF941EC100B10BD0000000022
:1086B0000000000000000000000000000000F03F8B
:1086C00010B553EC112B51EC100BFEF7CFF841EC29
:1086D000100B10BD000000009FED050B10B553EC12
:1086E000102B51EC100BFEF768F941EC100B10BD8C
:1086F00000000000000000009FED050B10B553ECDA
:10870000102B51EC100BFDF72FFF41EC100B10BD9F
:1087100000000000000000709FED050B10B553EC49
:10872000102B51EC100BFDF71FFF41EC100B10BD8F
:10873000000000000000001002E008C8121F08C17D
:10874000002AFAD170477047002001E001C1121FD2
:10875000002AFBD1704700000121202803DA814064
:108760000548014003E0402802DA2038814009B181
:108770000120704700207047FC06FFBD01490860DA
:1087800070470000A82D00202DE9FF5F82B0002176
:10879000DDE90430020DDDF840B0034318D044F6A3
:1087A0001050A2F2FF3242431514119801281FD035
:1087B000A5EB0B00401C5FEA000A4FF000064E4F8D
:1087C000DFF83891B046504615D5CAF1000413E0E1
:1087D000119801244AA3012801D16FEA0B010298E4
:1087E000119AC0E90031C0E9024206B0BDE8F09F2D
:1087F000CBF10000DFE704460021404A491842EB74
:108800000450CDE9001012E0E00707D032463B46A5
:1088100040464946FDF7A8FE8046894632463B461B
:1088200010461946FDF7A0FE06460F466410002CC0
:10883000EAD1DDE90401DDE90023BAF1000F06DA2F
:10884000FDF792FE42464B46FDF78EFE05E0FEF731
:10885000B4F842464B46FEF7B0F804460E460022F6
:10886000284BFEF759F903D84FF0FF30014607E0D7
:108870000022254B20463146FDF7F8FFFEF734F97C
:10888000102409E0002C0ADB0A220023FDF7AAFDD0
:10889000039B30321A55641E50EA0102F2D1641C67
:1088A000039AC4F111031444119A012A03D001223E
:1088B00008430DD10AE0084304D000204FF0110B0B
:1088C000119072E7A3EB0B056D1E0DE05B4504DD17
:1088D0004FF0000205F1010504E003DA4FF0000259
:1088E000A5F10105002AECD002981199C0E90231E6
:1088F000C0E9004579E70000000014400000F03FA7
:10890000300000000000F0430000E03F2DE9FF4F81
:1089100095B09B468946064600250FE2252877D16B
:1089200000242746F84A0121059400E0044316F884
:10893000013F203B01FA03F01042F7D130782A289A
:1089400011D06FF02F033078A0F13002092A16D829
:10895000059A44F0020402EB820203EB4202104447
:10896000761C0590EFE759F8042B0592002A03DAEC
:10897000504244F40054059044F00204761C3078D0
:108980002E2816D116F8010F44F004042A280DD021
:108990006FF02F023078A0F13003092B09D807EBD4
:1089A000870302EB4303C718761CF3E759F8047BEF
:1089B000761C30786C280FD006DC4C2817D068283D
:1089C0000DD06A2814D104E0742810D07A280FD171
:1089D0000DE044F400140AE044F4801401E044F48F
:1089E00040147278824202D104F58014761C761C01
:1089F000307866280BD013DC582877D009DC0028A3
:108A000075D04528F6D04628F4D047281AD19DE1E4
:108A100018E0632835D0642879D0652812D195E113
:108A2000702873D008DC6728F1D069286FD06E28D1
:108A30000DD06F2806D1B5E073282CD0752875D0DD
:108A4000782874D05A46179990476D1C75E1C4F385
:108A50000250022809D003280DD0D9F800100428AC
:108A60000DD00D6009F1040967E1D9F80010EA178B
:108A7000C1E90052F6E7D9F800100D80F2E70D7059
:108A8000F0E719F8041B8DF8001000208DF80100A4
:108A9000EA46012003E059F804AB4FF0FF306107CC
:108AA0004FF0000102D40DE008F101018846B942FF
:108AB0000FDA8045F8DB1AF808100029F4D108E035
:108AC00008F1010188468142FADB1AF808100029F2
:108AD000F6D105985B46A0EB080721463846179A61
:108AE00000F094FA284400EB080507E04DE029E186
:108AF0000DE01AF8010B5A4617999047B8F1010892
:108B0000F7D25B4621463846179A13E142E00A2223
:108B10000092C4F302524FF0000A022A08D059F81A
:108B200004CB032A4FEAEC710AD00DE029E02AE0D9
:108B300009F1070121F00702F2E802C1914609E0BC
:108B40000FFA8CFC4FEAEC71042A03D14FFA8CFC2B
:108B50004FEAEC71002907DA0A460021DCF1000C2B
:108B600061EB02012D2202E0220504D52B228DF8B3
:108B70000420012203E0E20701D02022F7E790461B
:108B800059E00A2102E010220DE010214FF0000A06
:108B900000910BE010224FF0000A44F00404082773
:108BA000009203E008224FF0000A0092C4F3025240
:108BB000022A05D059F804CB0021032A08D009E085
:108BC00009F1070121F00702F2E802C1914605E030
:108BD0001FFA8CFC042A01D10CF0FF0C4FF00008A6
:108BE000220728D5702806D0009B83F0100353EA93
:108BF0000A0305D00EE040228DF80420012208E08F
:108C00005CEA010206D030228DF804208DF80500C0
:108C100002229046009B83F0080353EA0A030AD11C
:108C20005CEA010201D1620705D530228DF80420EB
:108C30004FF001087F1E582804D034A003900EA8DE
:108C400002900DE036A0F9E753466046009AFDF722
:108C5000C9FB84460398825C0298401E0290027011
:108C60005CEA0100F0D1029806A9081A00F1200A76
:108C7000600702D524F4803400E00127574502DD67
:108C8000A7EB0A0000E0002000EB0A010090059825
:108C90004144401A0590E00306D45B462146179AEA
:108CA000059800F0B3F90544002706E001A85A46EC
:108CB000C05D179990476D1C7F1C4745F6DBE003AC
:108CC0000CD55B462146179A059800F09FF905449C
:108CD00004E030205A46179990476D1C0099481EB1
:108CE00000900029F5DC08E0029802995A460078C5
:108CF000491C0291179990476D1CBAF10001AAF125
:108D0000010AF1DC65E1000009280100303132334D
:108D100034353637383961626364656600000000B7
:108D200030313233343536373839414243444546A1
:108D30000000000000F058F90544761C3078002847
:108D40007FF4ECAD19B02846BDE8F08F620700D47F
:108D5000062709F1070222F0070CFCE80223E1468E
:108D600003F000485FEA080C02D00FF2702C0DE00F
:108D70005FEA045C02D50FF2682C07E05FEAC47C6E
:108D800002D00FF2602C01E0AFF2700C4FF0FF3810
:108D900023F00043CDF850C065280CD006DC4528F0
:108DA00009D046281DD047283DD13DE0662818D07F
:108DB00067287ED138E00021112F01DB112000E06F
:108DC000781CCDE9000106A90EA8FFF7DDFCDDE95E
:108DD0000F010E9A03910021009207F1010A0491FC
:108DE0004DE04FF000400097CDE9011006A90EA814
:108DF000FFF7CAFCDDE90F0203920E9B11990022D6
:108E0000DDF80CA00093049211B9791C00EB010A63
:108E1000B7EB0A0004D4C0F1FF3007F1010A049057
:108E2000AAEB0700019044E0012F00DA012700219E
:108E3000112F01DD112000E03846CDE9000106A91F
:108E40000EA8FFF7A1FCDDE90F010E9A03910021A6
:108E500004910092BA4621070CD40399514500DAD7
:108E60008A46BAF1010F05DD009AAAF10101515CB1
:108E7000302908D0B84202DA10F1040F06DA0121D5
:108E8000CDE9011015E0AAF10101E9E7002805DCB0
:108E9000049901440491AAEB000102E0411C5145F0
:108EA00000DD8A460499401A401C01904FF00040B2
:108EB0000290200704D40198504501DBCDF80480CE
:108EC00000208DF84F0002980DF14F07B0F1004FD0
:108ED00025D02B200E9002984FF0020800280CDAC3
:108EE000404202902D200E9007E00A210298FDF7E3
:108EF000F2FB3031029007F8011DB8F10001A8F132
:108F00000108F2DC02980028EFD1791E0E98087053
:108F1000307800F0200040F0450007F8020D12A85C
:108F2000C01B00F107081498007800B1012000EB85
:108F30000A01019801EBE07105984144401A401E76
:108F40000590E00306D45B462146179A059800F089
:108F50005DF805441498007818B15A46179990475F
:108F60006D1CE00324D55B462146179A059800F056
:108F70004DF805441CE00498002807DBDDE90301F7
:108F8000884203DD0098405C179901E01799302072
:108F90005A469047049805F10105401C0490019839
:108FA000401E019004D12E205A46179990476D1CFF
:108FB000BAF10001AAF1010ADDDC05E017F8010BA6
:108FC0005A46179990476D1CB8F10001A8F10108A5
:108FD000F4DC5B462146179A0598ABE62D000000AD
:108FE0002B000000200000002DE9F0410446002580
:108FF0001E461746880404D405E039462020B047B1
:109000006D1C641EF9D52846BDE8F0812DE9F041BC
:10901000044600251E469046C80301D5302700E0CF
:109020002027880404D505E041463846B0476D1C2A
:10903000641EF9D52846BDE8F0814A68002A06D0AA
:109040000A68531C0B6010704868401E48607047E7
:109050000A68531C0B6010707047800701D0002015
:1090600070470120704700000A4A0B4B52F820203D
:1090700053F8200002EB00338B4208D84FF48053A2
:1090800003EB00301044884201D9012070470020D2
:1090900070470000382B0020AC380020C3688B429A
:1090A00006D811440069491E814201D80120704749
:1090B0000020704710B501220221002002F0AEFA14
:1090C00008B1072810D107220221012002F0A6FAD8
:1090D00008B1072808D100210A22084602F09EFAAA
:1090E00008B1072800D1002010BD01F0B3B800007E
:1090F0001CB5104C207800281BD06078002818D0B0
:109100000D49982008800AF04FFA0C48017A01F0C6
:10911000FE0101720AF01CFB00202070607008A1A3
:109120007A20CDE90001134B134A14A1042003F067
:10913000A3F91CBD2C2B00207E2B0020B72B002078
:109140006170705F6163746976655F7265706F727C
:10915000745F66696E69736865645F616E645F649D
:109160006973636F6E6E6563745F68616E646C656E
:10917000720000001EA6030070D303004E4F5F5420
:10918000414700000F2000F02DB9002000F04EB83C
:109190001CB511480078A0B11049642008800AF07D
:1091A00003FA0F48017A41F0010101720AF0D0FA86
:1091B000072006F063FE0B49012008700AA13B203E
:1091C00001E00FA13E20CDE90001144B144A15A186
:1091D000042003F051F91CBD6D2B00207E2B0020D4
:1091E000B72B00202C2B00206170705F61637469C5
:1091F00076655F7265706F72745F7374617274000C
:10920000646576696365206973206E6F742061649C
:10921000766572746973696E67000000EFA50300DC
:1092200070D303004E4F5F54414700001CB5144CEF
:109230002178002920D048B1012819D1072006F053
:1092400029FE012060700FA15A2009E0184800781B
:1092500078B11849982008800AF0A6F916A14F2085
:10926000CDE900011E4B1F4A1FA1042003F004F9A1
:109270001CBD1FA15220F3E724A15E20F0E70000EF
:109280002C2B00206170705F6163746976655F727A
:1092900065706F72745F73746F703A20646576697D
:1092A000636520697320626F6E64696E67000000F9
:1092B0006D2B00207E2B00206170705F61637469EC
:1092C00076655F7265706F72745F73746F703A2049
:1092D0003330732069732074696D656F7574000095
:1092E00007A6030070D303004E4F5F5441470000B0
:1092F000646576696365206973206E6F74206164AC
:10930000766572746973696E670000006170705FE2
:109310006163746976655F7265706F7274206973DA
:10932000206E6F742072756E6E696E6700000000AB
:1093300010B5044610F8081B112945D2DFE801F0EA
:10934000090D1014171B1E222A2D303336393C3FCD
:109350004200616804F0FFFD36E004F0F9FD33E0FF
:10936000616804F000FE2FE004F0FAFD2CE0616873
:1093700004F0F5FD28E004F0EFFD25E0042006F000
:109380007DFD21E000F07CFB042006F083FDFFF76B
:10939000AFFE19E002F037FC16E002F050FF13E0D8
:1093A00002F039F910E00CF03EFE0DE002F0F0FBA7
:1093B0000AE001F0A5F807E001F0BDFA04E0FFF7CC
:1093C000E4FE01E00CF02AFE002C04D02046BDE8AB
:1093D000104000F0EDBF10BD014900F039BF0000A2
:1093E0003193020010B50446082000F0FDFF00286C
:1093F00004D00470BDE81040FFF7EEBF10BD2DE9AA
:10940000F041064615460F4602F1080000F0ECFF59
:1094100004000CD026702A46394604F10800656025
:10942000FDF736F82046BDE8F041FFF7D5BFBDE8AF
:10943000F081000010B504F0D3FC134C10220DA1F4
:10944000601CFDF725F811A02022016844F8171FC1
:10945000406860600C4810A12730FDF719F80A48F1
:1094600000F0FAFE154800F0E1FEBDE8104001F002
:1094700040B8000074757961323237633930366331
:109480003130646600000000AC2A002033626D7841
:109490006673716C0000000068473062547A65762C
:1094A0004F707A4334326E3267373746426A347AC5
:1094B0006237695866316A4500000000C1940200B5
:1094C0003EB50446007840380E2860D2DFE800F050
:1094D000071C5F5A5F5F365F5F262F52525220791A
:1094E000032854D12AA14820CDE900012E4B2F4A50
:1094F0002FA1042002F0C0FF042006F0CBFC0120C5
:10950000FFF794FE002039E0606821898278C91E47
:109510008A423CD1BDE83E4004F05AB82648007863
:10952000012834D12079BDE83E4006F041B82079C9
:10953000FF282CD0BDE83E4005F0F4B9B4F908206E
:109540001EA169208DE80700174B184A18A10420B6
:1095500002F092FF24A16A2062688DE80700124B96
:10956000124A13A1042002F087FF606800F0BCFFDC
:10957000022003E0002004F025FC0320BDE83E406B
:1095800006F07CBC201DBDE83E4000F04DBD3EBD58
:10959000626F6E64696E6720616E6420636F6E6EC9
:1095A000656374696E6700003DA503009CD20300EB
:1095B0004E4F5F54414700004832002054555941F6
:1095C0005F424C455F43425F4556545F54494D45A9
:1095D0005F5354414D50202D2074696D655F7A6F43
:1095E0006E653A2025640000545559415F424C4550
:1095F0005F43425F4556545F54494D455F53544164
:109600004D50202D2074696D657374616D703A2022
:109610002564000030B587B00D4672B6012837D0FA
:109620006FF48051401836D0B0F5405F3ED06FF4F3
:109630004051C8420ED11188506828A22323CDE999
:109640000032CDE902012C4B2CA230A1042002F003
:1096500013FF0AE02FA03621CDE90010264B27A2E8
:1096600002952AA1042002F007FF30A13A20CDE99B
:109670000001214B21A225A1042002F0FDFE09F0EA
:1096800095FB00BF09F0CCF90028FBD107B030BD35
:109690002AA11A2001E031A11E20CDE90001164BBC
:1096A00016A21AA1042002F0E7FEDEE71446906835
:1096B00009F01AFFD4E90012CDE90302CDE905153E
:1096C0002FA12B20A2688DE807000B4B0BA20FA146
:1096D000042002F0D1FE34A13120DEE7415353458E
:1096E0005254494F4E204641494C45442061742014
:1096F00025733A25750000003DCB03002E2E5C2E0D
:109700002E5C2E2E5C6D61696E2E63004E4F5F5491
:1097100041470000554E4B4E4F574E204641554C49
:109720005420617420307825303858005379737490
:10973000656D20726573657400000000534F4654D8
:109740004445564943453A20415353455254494FA5
:109750004E204641494C454400000000534F4654BA
:109760004445564943453A20494E56414C494420C8
:109770004D454D4F5259204143434553530000003E
:109780004552524F52202575205B25735D20617430
:109790002025733A25750D0A50432061743A203014
:1097A0007825303878000000456E64206F662065AB
:1097B00072726F72207265706F7274000EB5002144
:1097C0000091CDE901106A4644F20100FFF722FF43
:1097D0000EBD10B58268C368934203D003F03FFA10
:1097E000002010BD052010BD29B112B1531E134237
:1097F00003D0092070470E2070470160838000214C
:109800008160C1600846704710B58268C3689A1AC3
:1098100083889A4203D803F02CFA002010BD04205C
:1098200010BD00002DE9FF476A4D88469146297812
:1098300004260027032903D067A14FF4C37005E075
:1098400004460078C0B16FA140F29510CDE9000147
:10985000784B794A79A1042002F00EFE02978DF828
:109860000960022202A9484600F0D4FC00F0E8F9A1
:10987000012004B0BDE8F0870221601C00F020FE4A
:109880000221E01C00F01CFE0221601D00F018FE09
:1098900003978DF80C70B4F8012068680121401C12
:1098A000824202D08DF80D107CE0B4F80310A8F1CC
:1098B0000700814203D002208DF80D0072E00022E3
:1098C000E01D00F0CFFCB4F805104FF0030888420B
:1098D00002D08DF80D8065E08DF80D70A868002726
:1098E00040B1010BB4F803200903024401F5805193
:1098F000914210D84FF4805720B939464FF48C204C
:1099000000F079FDA86839466FF30B0000F58E2052
:1099100000F071FD0127A868B4F80320E11D00F5EF
:109920008C2000F096FD10B18DF80D603AE0B4F88F
:109930000300A96808444349A860096881420FD917
:109940006A6841A14FF4E9708DE80700394B3A4A43
:109950003AA14FF0040002F08FFD85F8008004E08A
:1099600001D12E7001E08DF80D60686800F10100F2
:109970006860184AB4F8031002F10C0204F1070001
:1099800000F072FCE8606FB1124A0423083208212B
:10999000002000F045FD0F4A04230C32092100206D
:1099A00000F03EFD022203A9484600F033FC9DF87A
:1099B0000D0068B128A14FF4F572CDE900210290A5
:1099C0001C4B1D4A1DA1042002F056FD00F038F981
:1099D00000204EE71C2B00204572726F723A205413
:1099E0005559415F424C455F4F54415F444154419A
:1099F0002D20735F6F74615F73746174652065728D
:109A0000726F72004572726F723A20545559415FFD
:109A1000424C455F4F54415F444154412D206F7487
:109A2000615F646174612D3E747970652065727246
:109A30006F720000C6A503002CD303004E4F5F5485
:109A40004147000014350020735F706B675F6964E5
:109A50003A202564000000004572726F723A20546B
:109A60005559415F424C455F4F54415F4441544119
:109A70002D206572726F7269643A202564000000BF
:109A800003480078002801D000F0DAB870470000E1
:109A90001C2B00202DE9FF41404E904632780325D3
:109AA0000024042A03D03EA140F2F91006E0012967
:109AB00001D10078C0B145A140F20720CDE90001F5
:109AC0004B4B4C4A4CA1042002F0D6FC02948DF87A
:109AD0000950022202A9404600F09CFB00F0B0F8B9
:109AE000012004B0BDE8F0810821002000F081FCD5
:109AF0000921002000F07DFC0721002000F079FC06
:109B000003943F4D8DF80C40B068296801278142CD
:109B100002D08DF80D7028E000F056FA696888428E
:109B200003D002208DF80D001FE08DF80D407770F6
:109B300034A140F22720CDE900012D4B2D4A2EA162
:109B4000042002F099FC324E68683C21B06228681B
:109B5000F762706206F13800FCF7B3FC4FF48C201A
:109B6000346370662B4800F0A3FB022203A9404631
:109B700000F050FB9DF80D0068B127A140F235229E
:109B8000CDE9002102901A4B1A4A1BA1042002F0D1
:109B900073FC00F055F80020A3E700001C2B002008
:109BA0004572726F723A20545559415F424C455F7D
:109BB0004F54415F454E442D20735F6F74615F7356
:109BC00074617465206572726F7200004572726F05
:109BD000723A20545559415F424C455F4F54415FA2
:109BE000454E442D2074797065206572726F720045
:109BF000DBA503002CD303004E4F5F544147000008
:109C0000143500206F74612073756363657373008E
:109C1000F06500201DA202004572726F723A205456
:109C20005559415F424C455F4F54415F454E442D6D
:109C3000206572726F7269643A202564000000002A
:109C400010B5094C607838B94FF41E710748FCF71D
:109C500038FC002000F02CFB00202070032006F0D0
:109C60000DF9002010BD00001C2B0020F065002025
:109C7000F0B54B4E8BB015463178012903D049A180
:109C80004FF4857005E00446007878B152A14FF496
:109C90008A70CDE900015E4B5E4A5FA1042002F0AC
:109CA000EBFBFFF7CDFF01200BB0F0BD042104F169
:109CB000090000F005FC042104F11D0000F000FC87
:109CC000042104F1210000F0FBFB5548D4F81D10DD
:109CD00010220160D4F82110416004F10D01083018
:109CE000FCF7D6FB1C2103A8FCF7EBFB00278DF843
:109CF0000C7008224BA1601CFCF713FC08B101207A
:109D000005E0D4F809100220B1F5847F02D88DF85F
:109D10000D0009E0D4F81D10B1F5003F01D9032072
:109D2000F5E78DF80D7030703D4A04231832082194
:109D3000002000F062FB3A4C04231834221D092154
:109D4000002000F05AFB2068CDF80E0003AE04217D
:109D5000B01C00F0B5FB6068CDF812000421B01D06
:109D600000F0AEFB10210DF11600FCF7AAFB1A2241
:109D700003A9284600F04EFA9DF80D0068B12CA109
:109D80004FF49F72CDE900210290214B214A22A17C
:109D9000042002F071FBFFF753FF002084E700006E
:109DA0001C2B00204572726F723A20545559415F46
:109DB000424C455F4F54415F46494C455F494E46D2
:109DC0004F2D20735F6F74615F73746174652065DC
:109DD00072726F72000000004572726F723A205406
:109DE0005559415F424C455F4F54415F46494C4590
:109DF0005F494E464F2D2066696C655F696E666FE0
:109E00002D3E74797065206572726F7200000000DB
:109E100090A503002CD303004E4F5F544147000030
:109E20001435002033626D786673716C0000000099
:109E30004572726F723A20545559415F424C455FEA
:109E40004F54415F46494C455F494E464F2D206572
:109E500072726F7269643A20256400002DE9F04146
:109E6000354C86B090462178022903D033A140F2C8
:109E70004D1005E00546007880B13EA140F2571034
:109E8000CDE900014B4B4C4A4CA1042002F0F4FAFE
:109E9000FFF7D6FE012006B0BDE8F0810421681C62
:109EA00000F00EFB0026009601968DF80060D5F8B4
:109EB0000100444F30B3042307F1100208210020B1
:109EC00000F09BFA042307F114020921002000F09E
:109ED00094FA102302AA0721002000F08EFA102223
:109EE000394602A8FCF71DFB68B9A06800F06CF8C1
:109EF000E168884207D1D5F80110A068814202D3F9
:109F0000CDF8010003E0CDF80160A660E660102303
:109F10003A460721002000F083FA04210DF10100E8
:109F200000F0CEFA05226946404600F073F903209E
:109F300020700020AFE700001C2B00204572726FDC
:109F4000723A20545559415F424C455F4F54415F2E
:109F500046494C455F4F46465345545F5245512D47
:109F600020735F6F74615F737461746520657272D2
:109F70006F7200004572726F723A20545559415FFA
:109F8000424C455F4F54415F46494C455F4F464602
:109F90005345545F5245512D2066696C655F6F666D
:109FA000667365742D3E74797065206572726F7288
:109FB00000000000AAA503002CD303004E4F5F54FD
:109FC000414700001C350020F8B5002827D00021AB
:109FD0000091C021B0FBF1F2B0FBF1F601FB1207DA
:109FE0004FF48C2400250CE0C0220E4920460FF0CF
:109FF0003EF86A46C0210B4800F036F9C0346D1CAB
:10A000000090B542F0D35FB1C022064920460FF060
:10A010002EF86A463946034800F026F90090F8BD4C
:10A020000098F8BD5434002010B586B0044600787E
:10A030008DF80C00207803280FD01BA14022CDE919
:10A04000002102901D4B1E4A1EA1042002F014FAAA
:10A0500062881EA061680AF055F82078052809D2A8
:10A06000DFE800F0030A10161C00618803AA60688C
:10A0700000F038F806B010BD618803AA6068FFF7E9
:10A08000F7FDF7E7618803AA6068FFF7E7FEF1E7ED
:10A09000618803AA6068FFF7C5FBEBE7618803AA44
:10A0A0006068FFF7F7FCE5E76F74615F636D645FFD
:10A0B000747970653A202564000000006CA50300E7
:10A0C0002CD303004E4F5F54414700006F74615F13
:10A0D000636D645F6461746100000000012000F042
:10A0E000E5B80000F0B5304D174685B02A78002459
:10A0F000012612B12DA1D52005E0012901D100785A
:10A10000C0B135A1E320CDE900013D4B3D4A3EA160
:10A11000042002F0B1F90294039404948DF80860CD
:10A12000092202A9384600F075F8FFF789FD0120E1
:10A1300005B0F0BD4FF0FF306860AC60EC606C7053
:10A1400018213348FCF7BDF9314818211830FCF7C5
:10A15000B8F941F2883300221821142000F080F869
:10A1600000F066F800948DF8004003208DF801009F
:10A17000019402948DF802404FF48470CDF80300EE
:10A180006C460421E01C00F09BF9C020ADF80700EC
:10A190000221E01D00F094F909226946384600F0DA
:10A1A00039F82E700020C3E71C2B00204572726F17
:10A1B000723A20545559415F424C455F4F54415FBC
:10A1C0005245512D20735F6F74615F7374617465C4
:10A1D000206572726F7200004572726F723A20547D
:10A1E0005559415F424C455F4F54415F5245512D97
:10A1F00020706172616D206572726F7200000000E4
:10A200007CA503002CD303004E4F5F544147000050
:10A21000143500204160428000F01EB9FFF710BDE8
:10A2200038B5049C00940DF011FA38BD0DF05ABAFF
:10A230001CB500200090019001208DF800006946B7
:10A24000022067DF041E01D0FFF7B8FA20461CBDCC
:10A250000DF0B8BC0DF0B4BF0EF0FEBF01F0FEBCB7
:10A2600009F09CBC01F006BD01F024BD1CB507A19E
:10A270004FF49C70CDE90001084B094A09A1042064
:10A2800002F0FAF80DF07CFD00201CBD64657669D3
:10A2900063652072657365740000000097A6030073
:10A2A00008D403004E4F5F544147000007F0D8BC6C
:10A2B00007F0B6BD70B50C4605460DF01DFC032831
:10A2C000A2B2294604D007A009F01CFF012070BDEE
:10A2D00008A009F017FF21462846BDE870400DF0A0
:10A2E00076BD000064705F7273705F756E636F6E31
:10A2F0006E00000064705F7273700000FEB514465B
:10A300000E4605460DF0F8FB032815A010D0DA2103
:10A31000CDE90010164B174A029517A1042002F050
:10A32000ABF8A2B2314616A009F0ECFE0120FEBD4A
:10A33000D621CDE900100E4B0E4A02950EA1042045
:10A3400002F09AF8A2B2314613A009F0DBFE03B086
:10A35000224631462846BDE8F0400DF074BD0000AD
:10A3600074696D657374616D703A20256400000036
:10A3700064A6030008D403004E4F5F544147000019
:10A3800064705F7273705F74696D657374616D7012
:10A390005F756E636F6E6E0064705F7273705F7472
:10A3A000696D657374616D700000000002F021BC7E
:10A3B0000DF0D7BE1CB504000AD068466DDF08B1A9
:10A3C000FFF7FCF9DDF801002060BDF80500A08072
:10A3D0001CBD0DF091BB09F017BE09F021BE10B5F0
:10A3E00009F06EFE002010BD80B20EF0FFBD01F03E
:10A3F0007FBC0CF003B90EF02BBE0CF0F7B910B512
:10A4000009F0B6FC00200CF051F901200CF04EF9D7
:10A4100002200CF04BF903200CF048F9002010BD8D
:10A420000CF04CBA10B502214FF4D4200CF0B6FB5E
:10A4300002214FF4D8200CF0B1FB02214FF4DC20B4
:10A440000CF0ACFB02214FF4E0200CF0A7FB002045
:10A4500010BD0EF013BE00003EB504460078032880
:10A460000FD00AA1E722CDE9002102900C4B0D4A42
:10A470000DA1042002F000F862880DA0616809F0C7
:10A4800041FE2046BDE83E400EF000BE6F74615FA5
:10A490007273705F747970653A2025640000000063
:10A4A00086A6030008D403004E4F5F5441470000C6
:10A4B0006F74615F7273705F6461746100000000AB
:10A4C00001F029BC09F074BE0FF063BA0FF0C6BAF0
:10A4D0000FF00EBB0FF046B80FF04CB80FF051B8AC
:10A4E0000DF0E2BB0FF0A4B910B50AF0F1F80020AE
:10A4F00010BD052005F0C2BC0D20FEF773BF0000A3
:10A5000001490120087070472F2B00202DE9F041F0
:10A510000E4C0546164660780F4618B915B9284600
:10A5200000F016F8207800280DD0002D0BD0B4F9DB
:10A530000200854207D06580324639462846BDE88C
:10A54000F04100F005B8BDE8F08100002E2B00209E
:10A5500030B5324D044699B0287840B1092C53D219
:10A56000DFE804F0071C22252B313C435400002C6B
:10A570004AD12BA1B520CDE90001314B314A32A19E
:10A58000042001F079FF4FF0FF306880012028702F
:10A590002FA00122006802A9029032E018222DA10A
:10A5A0006846FBF775FF14E030A00FC826E019B02D
:10A5B0002046BDE8304000F0E3B919B02046BDE8C0
:10A5C000304000F091B8062005F058FC27A30FCBCF
:10A5D00014E06846FBF79EFF82B21DE027A328A285
:10A5E0002FA16846FDF76AF915E001F1080213236F
:10A5F00004210020FFF714FF1CA10FC98DE80F00F4
:10A60000E7E7204600F09AF919B030BD32222FA1B9
:10A610006846FDF753F9C2B26946F2E72E2B0020D7
:10A620006170702074657374206D6F646520656E51
:10A630007465722073756363657373210000000095
:10A6400050A60300C0D303004E4F5F5441470000A3
:10A65000010000007B22726574223A747275652CC9
:10A6600022686964223A22227D0000007B22726502
:10A6700074223A747275657D00000000312E380036
:10A68000747579615F626C655F6C6F636B5F636F3C
:10A690006D6D6F6E5F626B3334333171000000009B
:10A6A0007B22726574223A747275652C2266697217
:10A6B0006D4E616D65223A222573222C22666972E5
:10A6C0006D566572223A222573227D007B227265C7
:10A6D00074223A747275652C2272737369223A225D
:10A6E0002564227D000000002DE9F05F83466E4C5A
:10A6F0006EA0042300682060224606210020FFF798
:10A700008FFE0423221D06210020FFF776FE04227F
:10A71000211D2046FBF705FF58B10D2265A12046FB
:10A72000FBF7B6FE0D225846BDE8F05F5E4900F02B
:10A7300005B97B20207022255B4962A065700088E6
:10A7400048804FF0740881F80480084665713A2605
:10A7500056A1A6710968C0F807102C27E7725AA104
:10A7600025730A6840F80D2F89888180E5744E486A
:10A7700026756575163020225549FBF789FE84F849
:10A78000365084F83770484852A184F83850098808
:10A7900020F8391F6421817084F83C50424A84F8C3
:10A7A0003D604FF0380A84F83E503F3213230421B5
:10A7B0000020FFF722FE84F8525084F853703A4884
:10A7C00045A184F854500968C0F8551084F85950D0
:10A7D0003F4984F85A6084F85B505C301022163987
:10A7E000FBF756FE84F86C5084F86D703CA084F83A
:10A7F0006E500088A4F86F00632084F8710084F81C
:10A80000725084F873604FF0720984F8745004F148
:10A8100075010C224FF4EE2009F0C8FA84F881503B
:10A8200084F882702FA084F883500168C4F88410E3
:10A830004068C4F8880084F88C5084F88D6084F8EF
:10A840008E5004F18F001C2229A1FBF721FE84F811
:10A85000AB5084F8AC702EA084F8AD50016844F879
:10A86000AE1F8088A08084F80690E57126722AA029
:10A8700065720088608184F80CA06573A77327A0B7
:10A88000E573016821614068606184F8188065762D
:10A8900025A0A6760068C4F81B006520E0777D201F
:10A8A00084F82000CF223EE744350020747275659D
:10A8B000000000007B22726574223A66616C736549
:10A8C0007D0000007265740061757A4B6579000047
:10A8D0007676002068696400757569640000000080
:10A8E0006D6163006669726D4E616D650000000008
:10A8F000747579615F626C655F6C6F636B5F636FCA
:10A900006D6D6F6E5F626B33343331710000000028
:10A910006669726D56657200312E380070726F6410
:10A920005F7465737400000066616C7365000000FD
:10A930000E20FEF757BDFFF799BC000070B50F4C15
:10A94000154666222270AA2262700022A270E07070
:10A95000280A207165712A46A01DFBF799FDAD1DDF
:10A96000ADB229462046FFF779FC60556D1CA9B2AF
:10A970002046BDE87040FFF7B5BD0000443600201A
:10A9800030B587B00C46012003F01CFA202204F1F8
:10A990000B011E48FBF77CFD1C48102204F1350119
:10A9A0001638FBF775FD0EF079FD18481621623058
:10A9B000FBF787FD0EF0A4FD04F14E006A460C2162
:10A9C0000546FFF783FD01280ED011A002AC0FC889
:10A9D00084E80F0002A8FBF79DFD82B202A90320C4
:10A9E000FFF7ACFF07B030BD6846FFF76BFD0122F3
:10A9F0004FF4EE241146204609F014F901230C22ED
:10AA00002946204609F0DAF905A0DFE7767600202E
:10AA10007B22726574223A66616C73657D0000006A
:10AA20007B22726574223A747275657D00000000A5
:10AA3000084B9B7823B12AB120B10068037C1BB17D
:10AA40000820704707207047002303744174426157
:10AA500018467047784F002070B50BF0F1FA104897
:10AA600000240B21047044700E4D81701420AC60E2
:10AA70006C70AC70FCF77FFA06211420FCF79CFA8E
:10AA80001420FCF783FA0848046006211120FCF723
:10AA900093FA0548001F0068E860002070BD0000C0
:10AAA000784F0020642C0020081501402DE9F84F54
:10AAB000DFF878A09AF8023073B368B3052902D2A0
:10AAC0000720BDE8F88F436933B3437C012B25D0C1
:10AAD0000023174F044600258846994616463D70C8
:10AAE000384600F0CFF868460FF08EFAC0B1012169
:10AAF00000F8041B0F4910C00968C66080E8020313
:10AB00009DF800008AF80100387800F0DFF8142082
:10AB1000FCF747FA2846D4E70820D2E70B46D8E7E7
:10AB20000425387800F0D2F8F4E70000784F0020D0
:10AB3000642C0020041501400649897839B130B1F0
:10AB4000416921B10021017402210CF0A7BA08204B
:10AB500070470000784F002070B50A4E01460A4841
:10AB6000B578FEF736FE04464DB10020B070711C7A
:10AB70000122C81D07F0CEF908B1FEF71FFE2046DE
:10AB800070BD00007C2C002084500020F0B5244EC5
:10AB900089B01F460D00044672603FD0A88829681E
:10ABA00082B22048FEF720FE002835D1A889A96886
:10ABB00082B21C481030FEF717FE00282CD120224C
:10ABC00019496846FBF764FC60690690207C00B177
:10ABD00001208DF814008DF81C70607C00B10E20EF
:10ABE0008DF81500E0680290A0680390206801903D
:10ABF000606800900A480D4A6946083007F056F927
:10AC0000002809D1B0702068401C05D004490122F9
:10AC1000491CC81D07F07EF909B0F0BD0720FBE70D
:10AC20007C2C00208450002098CB0300C19B0300A3
:10AC300010B501461048FEF7E7FD040019D10F4892
:10AC40000F4A0178515C19B1001D0AF065F802E065
:10AC50000C3009F049FF60B9084907480839FEF788
:10AC6000B8FD30B9054901220839044807F062F9F6
:10AC70000446204610BD000094500020842C002083
:10AC80003C2C002030B5EFF3108172B60D4A946869
:10AC9000012324B10370002900D162B630BD936056
:10ACA0004FF0E023D3F88051074C25401560C3F8DE
:10ACB0008041D3F8844154605A17C3F8842100229C
:10ACC0000270E8E7A4500020FC06FFBD0B498A682B
:10ACD000002A11D000280FD1EFF3108072B60B6854
:10ACE0004FF0E022C2F800314B68C2F80431002274
:10ACF0008A60002800D162B670470000A45000208E
:10AD00002DE9F04F0346164600BF002084468046DA
:10AD100005460446012901D0022911D1581E642795
:10AD200090FBF7F044B2581E90FBF7F907FB1900AF
:10AD300045B201F10C004FFA80F84FFA86FC0DE0A5
:10AD4000642093FBF0F044B2642093FBF0F700FB27
:10AD5000173045B24FFA81F84FFA86FC08F1010925
:10AD60004FF01A0A09FB0AF94FF00A0A99FBFAF99F
:10AD70004FEAE57A05EB9A7A05EBAA0A4FEAE47BFB
:10AD800004EB9B7B0AEBAB0A4FF0020B0BFB14AA04
:10AD9000D144E144A9F10102002A05DD072092FB1C
:10ADA000F0F700FB172005E0072092FBF0F700FB0F
:10ADB0001720C01D0246D0B2BDE8F08F01464FF407
:10ADC000C87091FBF0F200FB121008B90120704727
:10ADD000642091FBF0F200FB121008B90020F6E7A6
:10ADE000CA1701EB92729210A1EB82020AB90120FC
:10ADF000EDE70020EBE7000070B504460D460CB10E
:10AE00000C2C07DD2846FFF7D9FF0949497808448B
:10AE1000C0B270BD022C03D0601E0549085CF8E783
:10AE20002846FFF7CBFF024949780844C0B2F0E753
:10AE3000E2CE03002DE9F041064608680C46411CAD
:10AE40004FF0A0474FF0010506D005FA00F1C7F812
:10AE50000815206807F0D0FC6068411C02D0002172
:10AE600007F0B8FC3168A069C1F82405607D227D37
:10AE700031681043C1F86C05D4E900123068C0F89D
:10AE80001425C0F80C15207D012815D1A068411C9F
:10AE900002D0002107F09EFCE068411C05D08540EF
:10AEA000C7F80855E06807F0A7FCD4E9021230683B
:10AEB000C0F80825C0F81015BDE8F0812DE9F04173
:10AEC000064608680C46411C4FF0A0474FF00105AC
:10AED00006D005FA00F1C7F80815206807F096FCBF
:10AEE0006068411C02D0002107F07DFC3168A06938
:10AEF000C1F82405607D217D32680843C2F86C05E5
:10AF0000D4E900123068C0F80C15C0F81425207D73
:10AF1000012815D1A068411C02D0002107F063FC74
:10AF2000E068411C05D08540C7F80855E06807F087
:10AF30006DFCD4E902123068C0F80825C0F810157D
:10AF4000BDE8F08110B504460068401C09D000221D
:10AF50005021201D0CF010FE2168814201D10120FA
:10AF600010BD002010BD000078210148FBF7A9BAF0
:10AF7000404E002070B51500044609D0002028601E
:10AF800034B1206820B1A079800703D0072070BDBC
:10AF90000E2070BD084600F0B2F8C0B2142804D0EC
:10AFA0002179814203D8042070BD052070BDE2885C
:10AFB000216800FB02102860002070BD70B588B1C8
:10AFC00082B10024158803E0065D641C3444A4B2F9
:10AFD000A54203D8061976789E4201D08C42F3D35D
:10AFE0008C4201D3002070BDA11C1180005D401E69
:10AFF00080B270BD2DE9F0418AB006460020ADF860
:10B0000014001346102088468DF804000D4606AA49
:10B0100001A9184664DFA6B398BB9DF80400022876
:10B0200004D0042807D0102839D10DE003208DF872
:10B030001000022003E005208DF8100004208DF898
:10B040001100002404AF0FE007208DF81000062047
:10B05000F5E73B5D05AA41463046FFF7AFFF641CAC
:10B06000E4B20546022C04D2BDF814000028F0D04A
:10B0700003E0BDF81400002812D080B2064400247A
:10B080000BE00CE030199DF8042006A9FBF749FA03
:10B0900048B19DF80400204484B2AC42F2D30020B1
:10B0A0000AB0BDE8F0810120FAE7F8B504460F4682
:10B0B00000254FF6FF7000900026E07AA17A40EA62
:10B0C000012505F10D00FF2801DD0120F8BD05F186
:10B0D0000C0081B26A4620460CF02EFD064605F1B2
:10B0E0000D00215C401E205C41EA00200090BDF86C
:10B0F0000000B04201D10020E8E70120E6E710B5EA
:10B10000044600F007F808B1204610BD142010BD19
:10B11000FFF72ABF142801D30020704701460148D9
:10B1200006F02CBA444E00202DE9F04105460E46AB
:10B13000F2B2294628480CF058F804466CB1032CAA
:10B140000BD00020254908604FF480712348001D72
:10B15000FBF7B7F90120BDE8F0811F48807901288D
:10B160000BD100201D4908604FF480711B48001D61
:10B17000FBF7A7F900201A490860174801F0D0FF33
:10B18000174909680844B0F5807F1DD8124801F0BE
:10B19000C7FF0746104801F0BFFF80460F49091D51
:10B1A0000F4A126888183A464146FBF771F90A4877
:10B1B00001F0B6FF0A4909680844094908600846D1
:10B1C00000680649086000E001241CB90020044919
:10B1D0000860C0E70220BEE7A46D0020946900204B
:10B1E0006C2D002010B51A4C0188606810290ED013
:10B1F00011292BD1401E606028D1FDF75BFF00288C
:10B2000024D02168002921D0BDE810400847D0B9DA
:10B2100000210122084600F001FA08B107280FD1E9
:10B2200007220221012000F0F9F908B1072807D10F
:10B2300004220221002000F0F1F920B1072802D0F9
:10B24000216801B188476068401C606010BD000043
:10B25000282C00202DE9F04701883B4E40F2F319DD
:10B260004FF6FF7510291BD011293ED0122954D05A
:10B27000502946D1C188F289841D914241D161890A
:10B2800002293ED18688304601F070FF050038D093
:10B2900004F10C0000F0B8F9A8B3294630464EE09E
:10B2A000C17B8788044601292BD1A846284601F096
:10B2B0005DFF050017D02F800020287223484346E9
:10B2C0004A460168C5F80A104068C5F80E0004F146
:10B2D000100105F10A0002F05FF86872F089002899
:10B2E0000FD129462AE0042013E0808801F03EFFB8
:10B2F000040006D06068FFF71FFC08B10BF04AF8A5
:10B300002580BDE8F087FFE76868FFF715FC002897
:10B31000F7D0BDE8F0470BF03DB8878806463846C1
:10B3200001F024FF0400ECD02B464A4606F1080148
:10B3300004F10A0002F030F8607221463846BDE898
:10B34000F04700F067BC0000244E0020302C0020A5
:10B350002DE9F04F0746858802883D48012197B0C6
:10B360008346102A09D0112A49D01A2A6CD1387A7A
:10B37000B1EB101F45D2012244E0354C083CA068D7
:10B38000C0430B9061680BA806F01FF90B990CA83D
:10B3900000F0DCFB2C220CA96846FBF779F80026AC
:10B3A000E946A04610E000BF09EB46005FF000044C
:10B3B000B0F804A008EB84005146001D06F0D3F855
:10B3C000641C1D2CF6D3761C0098B042ECD8142DCA
:10B3D00005D317B00420BDE8F04FFEF7EFB92946BA
:10B3E000584606F0D6F8294608F1040006F0D1F8D0
:10B3F000F87B012828D016482946001D15E029466B
:10B400001AE000220221B1EB101F01D2012600E058
:10B4100000260F49083901F11000041D294682B1A8
:10B4200006F0B7F836B12946204617B0BDE8F04F10
:10B4300006F0AFB82946204617B0BDE8F04F06F039
:10B4400092B806F090F8F5E717B0BDE8F08F00006D
:10B45000484E0020F0B585B016460F4604001D4644
:10B4600014D004AA19466069FFF784FD00280BD1A7
:10B47000A5F57F40FF380BD0049848B1007848B15B
:10B480003088142808D9072005B0F0BD0E20FBE74E
:10B490000520F9E70820F7E70020009001900290CE
:10B4A0000390A088ADF8000001208DF80200CDE9DE
:10B4B000026769462846AEDFE6E7000070B5354D05
:10B4C00004008EB02DCD08AE86E82D005FD0E9B324
:10B4D0000868A061214608A862DF002855D12078BD
:10B4E0008DF8320041F61010ADF83000A21C0CA906
:10B4F0000120A8DF002848D120216846FAF7E1FFA3
:10B5000042F61130ADF80000207801258DF80200D8
:10B510008DF80C509DF80D001426ADF8046040F035
:10B520000C008DF81150ADF806508DF80D008DF817
:10B530001250608804F10C02694600F0B9F9002845
:10B5400023D120216846FAF7BCFF00E01FE042F655
:10B550001030ADF8000020788DF802008DF80C5006
:10B560009DF80D008DF81150ADF8046040F010000A
:10B570008DF81250ADF806508DF80D008DF813506F
:10B580006088221D694600F093F90EB070BD0E2050
:10B59000FBE7000070CB030070B588B004460029BB
:10B5A00024D0002C22D008462188102920D05029F0
:10B5B00024D057291AD10546A188406906AAFFF769
:10B5C000D9FC002812D1069E307800280ED0182110
:10B5D0006846FAF776FF01208DF800000195A088F3
:10B5E000ADF808000396A9696846884708B070BDA1
:10B5F00008B02146BDE8704009F0C2BC08B0214641
:10B60000BDE8704009F09CBD007800F00100704773
:10B610000A20FDF7E7BEFF2003F084B970B50023D0
:10B62000042810D20D4D00EB4004012A02D101295B
:10B630000CD00022094E00EB4000304461B10129DA
:10B6400006D0022906D00723184670BD0E30C2B2BC
:10B650002A55F9E74270F7E78270F5E7E44D0020DC
:10B660002DE9F047214F0546861C00203870914691
:10B6700088464FF0010A3846FFF704FB1C4C20684F
:10B68000C8F80000D4E90001401AA16804F21C487F
:10B69000081A0EE00121404605F091FF04F006FC77
:10B6A0000146404605F08BFFD4E90001401AA1682D
:10B6B000081A401C8642EDD8B9F1000F03D00520CE
:10B6C00065F3891002E0062065F39F50A2682168A7
:10B6D000114004EB8101C860206830442060387854
:10B6E000FFF7F4FA5046BDE8F0870000BC2C0020BC
:10B6F0005454002070B50D4604460A2902D10D218C
:10B70000FFF7F8FFA0682268411CA1601554D4E936
:10B710000101814204D32046BDE8704006F04CBCD4
:10B7200070BD0000034803C8814201D10120704769
:10B73000002070475454002030B5034601240020F7
:10B7400006E01D5C954201D0002403E0451CA8B230
:10B750008842F6DB00BF204630BD2DE9F05F82460F
:10B76000DDE90A7BD41998468946154620460AF039
:10B770006DFB06462146FAF7A4FE2A4649463046A6
:10B78000FAF786FE3A464146A819FAF781FEBBF160
:10B79000000F07D0294648460AF038FC3946404693
:10B7A0000AF034FCCAE90064BDE8F09F2DE9F047D7
:10B7B0000746DDE9080A1E4688469146B04201D395
:10B7C000814506D20D49D1E90001C7E90001BDE874
:10B7D000F087841B20460AF039FB054608EB06017A
:10B7E0002246FAF755FEBAF1000F03D0494640460B
:10B7F0000AF00CFCC7E90054E9E7000024C9030083
:10B80000C0E9001270470000054910B548430549DA
:10B8100000F038F8BDE81040082100F033B800000F
:10B82000A0110500A08601002DE9F0470546089EFD
:10B830000F469046994631460A2001F05DFA0446CB
:10B8400032463946284601F076FA054632464946E0
:10B85000404601F070FA854201D9281A03E0A84257
:10B8600007D96119081AB0FBF4F104FB1100BDE817
:10B87000F0870020FBE710B5042100F003F88000FA
:10B88000001D10BD884201D801207047B0FBF1F2C5
:10B8900001FB1202B0FBF1F0002AF6D0401C704709
:10B8A0000249084490F9300070470000CC4E002057
:10B8B0002DE9F0438146887891B090460C4600B956
:10B8C00001208DF83E002088ADF83C000025009551
:10B8D000607C69460AF09AFD6E46A07C711C0AF0F5
:10B8E00095FDE07B00289DF8020002D040F00800A2
:10B8F00001E020F008008DF80200217C11B140F039
:10B90000100001E020F010008DF80200217B11B141
:10B9100040F0010001E020F001008DF80200217DDF
:10B9200009B1022100E0012161F342008DF802001B
:10B930001C2102A8FAF7C5FD607BC10601D4800670
:10B9400017D50E950EAFE07C791C0AF05FFD9DF8CF
:10B950003800079720F00F00401C20F0F000103056
:10B960008DF838009DF83A0020F00600801C8DF814
:10B970003A00607B8DF80800A07B8DF80900142147
:10B9800009A8FAF79EFD0FA8CDE90906A088ADF831
:10B990003000A06820B1E088ADF82C00A0680D90C0
:10B9A000A06998B301950088ADF81000A06901ADB9
:10B9B00001A94088ADF81200A0694068069503907F
:10B9C000A069007B0AF022FDA069691C407B0AF097
:10B9D0001DFDA069807A00289DF8060002D040F085
:10B9E000080001E020F008008DF80600A169C97A7E
:10B9F00011B140F0100001E020F010008DF80600B9
:10BA0000A169097A19B140F0010002E00DE020F0CF
:10BA100001008DF80600A169897B09B1022100E0CF
:10BA2000012161F342008DF80600E06900B1059044
:10BA3000434609AA02A94846AADF11B0BDE8F0832F
:10BA400010B502460B460021002400BF02E0505C06
:10BA50000444491C9942FAD3E0B210BD70B5084CB9
:10BA6000050009D010342168002907D0086820603B
:10BA7000496828468847F6E70834F4E770BD0000B7
:10BA8000B84E0020054A012120B1012805D191704E
:10BA9000FFF7E4BF51700020FAE77047B84E00206E
:10BAA0002DE9F05F26488168F1B3DFF898B00E68A1
:10BAB0008146DBF80040C768C078E11B21F07F4574
:10BAC000ED1CB0B9DFF880804FF48030C8F8440333
:10BAD000C8F804031120FBF74EFA1120FBF756FAC1
