:020000040002F8
:1060000078A30020C1630200C9630200CB630200D1
:10601000CD630200CF630200D163020000000000E4
:10602000000000000000000000000000D363020038
:10603000D563020000000000D7630200D9630200AC
:10604000A9700200DB630200F1790200DB63020049
:10605000DB630200DB630200696D0200DB630200A8
:10606000DB630200DB630200DB630200DB63020030
:10607000DB630200DB630200DB630200DB63020020
:10608000DB6302004D710200DB630200DB63020090
:1060900097760200DB6302009F760200DB6302005A
:1060A000DB630200DB630200DB630200DB630200F0
:1060B000DB630200DB630200000000000000000060
:1060C000DB630200DB630200DB630200DB630200D0
:1060D00081710200DB630200DB630200000000004C
:1060E00000000000000000000000000000000000B0
:1060F00000000000000000000000000000000000A0
:10610000000000000000000000000000000000008F
:10611000000000000000000000000000000000007F
:10612000000000000000000000000000000000006F
:10613000000000000000000000000000000000005F
:10614000000000000000000000000000000000004F
:10615000000000000000000000000000000000003F
:10616000000000000000000000000000000000002F
:10617000000000000000000000000000000000001F
:10618000000000000000000000000000000000000F
:1061900000000000000000000000000000000000FF
:1061A00000000000000000000000000000000000EF
:1061B00000000000000000000000000000000000DF
:1061C00000000000000000000000000000000000CF
:1061D00000000000000000000000000000000000BF
:1061E00000000000000000000000000000000000AF
:1061F000000000000000000000000000000000009F
:10620000DFF80CD000F0A0FC00480047451D03005B
:1062100078A3002030B450E8012F93B2C4892344FE
:106220008489A34228BF1B1B0489A34202BFBFF37A
:106230002F8F002007E0C3EA020340E80134002C5E
:10624000E9D14FF001000A6030BC704750E8012FDF
:10625000C2EA024240E801210029F7D1704730B478
:1062600050E8022F1FFAA2F3C488A34202BFBFF373
:106270002F8F00200DE0C48923448489A34228BFC6
:106280001B1BC2EA034340E80234002CE8D14FF064
:1062900001000A6030BC704750E8022FC2EA224277
:1062A00040E802210029F7D17047034653E8022F46
:1062B000D988B2EB324F4FF0000017BF92B241EADB
:1062C000014142EA014104E05A68B2EB324F08BF93
:1062D000012043E80212002AE8D1704730B4044696
:1062E00054E8000F0D4644E80053002BF8D1156028
:1062F00030BC704730B4044654E8000F40EA010552
:1063000044E80053002BF7D1156030BC704730B41F
:10631000044654E8000F00EA010544E80053002B4E
:10632000F7D1156030BC704730B4044654E8000F14
:1063300080EA010544E80053002BF7D1156030BC1A
:10634000704730B4044654E8000F00EB010544E800
:106350000053002BF7D1156030BC704730B40446B1
:1063600054E8000FA0EB010544E80053002BF7D1DF
:10637000156030BC704770B404464FF0000054E81C
:10638000006F0D68AE4207BF44E80023012044E8D7
:1063900000630E60002B1CBF0020F0E770BC70474C
:1063A00030B4044654E8000F88422CBF451A054615
:1063B00044E80053002BF5D1156030BC7047000055
:1063C0000648804706480047FEE7FEE7FEE7FEE78F
:1063D000FEE7FEE7FEE7FEE7FEE7FEE7B97602002E
:1063E000016202002DE9F05F0546002092469B46BF
:1063F00088460646814640241BE0284641464746DB
:10640000224600F07EF953465A46C01A914110D3F5
:1064100011461846224600F016F82D1A67EB0108BF
:106420004F4622460120002100F00DF817EB00092D
:106430004E41201EA4F10104DFDC484631462A46C5
:106440004346BDE8F09F202A04DB203A00FA02F11F
:10645000002070479140C2F1200320FA03F3194352
:106460009040704700487047541004000649074A9E
:106470000868504343F239021044086040087047EE
:106480000149086070470000FC2D00206D4EC64198
:1064900040EA01039B0703D009E008C9121F08C0A6
:1064A000042AFAD203E011F8013B00F8013B521E26
:1064B000F9D27047D2B201E000F8012B491EFBD29D
:1064C00070470022F6E710B513460A4604461946FF
:1064D000FFF7F0FF204610BD30B505462A460B46B3
:1064E00012F8010B13F8014B08B1A042F8D01CB10F
:1064F000002802D06D1CF1E7284630BD10B50446D7
:1065000004E00B7800F8013B03B1491C521EF8D29D
:10651000204610BD421C10F8011B0029FBD1801A37
:10652000704730B504460020034600E05B1C9342F0
:1065300003D2E05CCD5C401BF8D030BD034611F8BF
:10654000012B00F8012B002AF9D11846704770B5CD
:10655000064601F055FB046805460A220021304634
:1065600000F0DFF82C6070BD2DE9FE4F81EA0304D6
:1065700004F0004421F0004100944FF0000B23F0A0
:10658000004350EA01045ED052EA03045BD0C3F337
:106590000A54C1F30A552C44A4F2F3340194A0FB2D
:1065A0000254C1F3130141F48011C3F3130343F404
:1065B000801301FB024400FB034E840A970A44EA5D
:1065C000815447EA8357A4FB076802958D0A05FBAF
:1065D00007854FEA932C04FB0C542705029D4FEAD4
:1065E000065847EA1637B5EB08056EEB070C870E21
:1065F000920E47EA811742EA8312A7FB0201B6EB2B
:106600000B0164EB00042B0D43EA0C335E1844EBE2
:106610001C50DA465146E7FB0201C5F313044FEA6A
:106620000B3343EA14534FEA0432019C43EA060356
:10663000A4F10C040294009CCDE900B400F0C8F869
:1066400003B0BDE8F08F00200146F9E70EB540F237
:10665000334102910021CDE900110A460B4600F0BA
:10666000B7F803B000BD70B5C1F30A5201F00045A0
:106670000024C1F3130140F2FF3341F480119A4228
:1066800001DA002070BD40F233439A42A2F2334255
:1066900003DC524200F035F800E090402C43F1D08A
:1066A000404270BDC1F30A5210B5C1F3130140F26C
:1066B000FF3341F480119A4201DA002010BD40F20C
:1066C00033439A42A2F2334203DC524200F019F8FB
:1066D00010BD904010BD30B50B4601460020202271
:1066E000012409E021FA02F59D4205D303FA02F5DF
:1066F000491B04FA02F52844151EA2F10102F1DC3F
:1067000030BD202A04DB203A21FA02F00021704734
:1067100021FA02F3D040C2F1200291400843194609
:1067200070472DE9F04791460E4680460446002505
:1067300014F8017B2FB1FFF795FE0068C05DC0071C
:10674000F6D12B2F02D02D2F1ED0641E4A46314683
:10675000204600F01DFA26B13268A24201D1C6F8E7
:1067600000806A054FF0020418D50023D0EB030522
:1067700063EB01025D1B934109DB0023D0EB0300B7
:1067800063EB0101BDE8F08745F48065DEE701F0C9
:1067900037FA046000204FF00041F3E7021E71F168
:1067A0000002EFDA01F02CFA04604FF0FF304108EC
:1067B000E8E710B5141E73F1000408DA401C41F13B
:1067C000000192185B411A4301D120F0010010BD75
:1067D0002DE9F04D92469B4611B1B1FA81F202E0EB
:1067E000B0FA80F220329046FFF72DFE04460F46A5
:1067F00040EA0A0041EA0B0153465A46084313D0C7
:10680000114653EA010019D0C8F140025046FFF783
:1068100078FF05460E46504659464246FFF713FE9E
:10682000084305D0012004E020463946BDE8F08D3C
:106830000020054346EAE0762C4337430A98630577
:10684000E40AA0EB08000022FD0A44EA47540A309B
:1068500002D500200146E9E7010510196941DDE98B
:10686000084500196941BDE8F04DA2E72DE9FE4F4A
:10687000804681EA0300C00F0C46009021F00041E1
:1068800023F00045B8EB0200A94105D2404621465D
:1068900090461C460B46024623F00040104347D06A
:1068A000270DC7F30A00C3F30A510290401A019062
:1068B00040286BDAC3F3130040F4801B0098924623
:1068C00020B10023D2EB030A63EB0B0B019859466E
:1068D000C0F140025046FFF7B6FD06460D46504651
:1068E0005946019A00F042F910EB0800614100247A
:1068F00087EA115284EAE7731A4340D0009A62B3E0
:10690000019A012A4FEA075215DC001B61EB0201D4
:106910004FF0004202EA0752CDE90042001C41F567
:10692000801132462B46FFF753FF03B0BDE8F08FCE
:1069300040462146F9E7001B61EB0201001C41F5CE
:10694000801300185B412018A2F5001747EB0301E4
:1069500040EAD570B6196D4111E06D084FEA360670
:1069600045EAC0754FEA0752001B61EB0201001CAB
:1069700041F5801149084FEA300000195141324673
:106980002B4603B0BDE8F04FFFF713BF009801227C
:1069900040000023D0EB020263EBE0730098214635
:1069A0004FEAE074B8EB000061EB0401E9E783F023
:1069B00000435BE781F0004158E72DE9F04D81EAA3
:1069C000030404F0004B21F0004514464FF0000A88
:1069D00023F0004150EA050220D054EA01021DD004
:1069E000C5F30A570246C5F31303C1F31300C1F3FD
:1069F0000A5640F4801543F48013A7EB0608101BD9
:106A0000D64608F2FD3873EB050002D308F1010801
:106A100001E092185B41B8F1000F03DA0020014653
:106A2000BDE8F08D00204FF48011064684460EE04C
:106A3000171B73EB050705D3121B63EB0503064316
:106A40004CEA010C49084FEA300092185B4150EAC9
:106A50000107EDD152EA030012D082EA040083EA72
:106A60000501084305D0101BAB4106D201220023CB
:106A700006E000224FF0004302E06FF001025310E5
:106A80001AEB06004CEB085110EB0A0041EB0B012E
:106A9000BDE8F04DFFF78DBE70B521F00043034314
:106AA0000CD0C1F30A550024D5EB040564EB0403B4
:106AB000D617AD1AB34102DB0020014670BD201885
:106AC00041EB025170BD0EB5C10F80EAE070084481
:106AD000CA07002140F233438DE80E000A460B46F8
:106AE000FFF776FE03B000BDC1F30A52C1F31301F4
:106AF00040F2FF3341F480119A4202DA002001464D
:106B0000704740F233439A42A2F2334202DC5242CF
:106B1000FFF7F7BDFFF797BC30B5041E71F1000415
:106B200004DB4FF00044404264EB0101141E73F19A
:106B3000000405DB1C464FF00043524263EB0403A4
:106B4000994208BF904230BD064C074D06E0E06810
:106B500040F0010394E8070098471034AC42F6D3A4
:106B6000FFF752FB901E0400B01E0400202A06DB33
:106B7000CB17203A41FA02F043EAE07306E041FA0B
:106B800002F3D040C2F120029140084319467047F9
:106B90002DE9F74F4FF00009009C1546CA4614F83E
:106BA000010B302801D0ADB115E014F8010B4FF006
:106BB0000109782803D0582801D04DB10BE00DB160
:106BC000102D08D14FF00009102514F8010B02E038
:106BD000082500E00A2500273E46B8464FEAE57B37
:106BE00016E0A5FB07230BFB073105FB080005FB9F
:106BF0000616030CD71846F100061FFA80F8381E57
:106C00004FF0010976F5803000D3CA4614F8010B25
:106C1000294600F06FF80028E3DA019838B1B9F19D
:106C2000000F01D0641E00E0009C01980460BAF1DE
:106C3000000F08D000F0E4FF02210160C81E0146E9
:106C400003B0BDE8F08F310441EA174148EA07403C
:106C5000F6E72DE9F04D00231A461B1A8A4103DBA3
:106C600000200146BDE8F08DC1F30A52C1F31301C3
:106C700041F480154FF0000BD10702D100186D418F
:106C8000521E0027044640F2FF11384601EB620A0B
:106C90003E468046024600204FF48011FFF731FD4A
:106CA000C2197141BB1846EB0100B4EB030C75EB44
:106CB000000C04D3E41A65EB000517460E462419B0
:106CC00008F101006D4180463428E3DDF91946EBF7
:106CD0000600091BA84103D24FF0FF32134601E022
:106CE000002213461BEB070046EB0A51BDE8F04DAE
:106CF000FFF75FBD3A2800D2303820F02002412A49
:106D000001D3A2F13700884201D34FF0FF30704722
:106D100070B58C1810F8015B15F0070301D110F85D
:106D2000013B2A1106D110F8012B03E010F8016B8A
:106D300001F8016B5B1EF9D12B0705D40023521E0D
:106D40000DD401F8013BFAE710F8013BCB1A921C75
:106D500003E013F8015B01F8015B521EF9D5A14273
:106D6000D8D3002070BD00002DE9F04F89B0002776
:106D7000002008904FF4807007900126002412E054
:106D800007980EF0D1F840B100BF7B480068304052
:106D900018B107980EF0BAF8374376000798001D2F
:106DA00080B20790641C082CEAD34FF4BE700EF03A
:106DB000BBF850B14FF4BE700EF0A8F847F0004792
:106DC00008AA012100200EF087F8F8B200B30126CE
:106DD00000241BE006EA0700B0B100BF674850F886
:106DE0002400C0F30420804600BF644850F824000B
:106DF000C0F301408146204605F0F8FB054615B179
:106E000049464046A84700BF7600641C082CE1D3E1
:106E100007F0004000287DD0002006900590002556
:106E200005E04FF0FF3004A941F825006D1C002D4E
:106E3000F7D000BF0020069000245FE05048005DBE
:106E40000390039820F0C0094D480057401C0028CB
:106E500053D004A948460CF037FE00284DD00398C3
:106E60004FEA901A484605F0C9FB804605F0BEFB84
:106E70000290029810B9BAF1030F3DD1BAF1030F95
:106E800003D105A948460CF02AFE00BF00BF4FF011
:106E9000A041084600F5E06151F82910C1F301480E
:106EA00000BF08A948460CF00FFE8346BBF1000F57
:106EB00002D0B8F1020F05D0BBF1000F1BD1B8F121
:106EC000030F18D1BAF1030F0FD1B8F1020F01D19E
:106ED000032000E002200190484601990DF0CCFF0C
:106EE0000698401CC0B2069000BF029818B15146E7
:106EF0004846029A904700BF00BF641C042C9DD3F3
:106F0000069888B34FF0010803AA012100200DF074
:106F1000E3FF00E02DE000250BE003A850F825007A
:106F200008A951F82510884202D04FF0000802E06D
:106F30006D1C002DF1D000BFB8F1000F02D0002071
:106F4000069010E000250CE003A850F8250008A9E1
:106F500041F8250005A850F8250004A941F82500AE
:106F60006D1C002DF0D000BF069800287FF462AFA2
:106F700000BF09B0BDE8F08F046300401065004019
:106F8000D04F00202DE9F041C0B005460C46164612
:106F90001F46DDF81881402C06D91BAA2146284639
:106FA00000F03EF91BAD1424402130A8FFF789FA08
:106FB000402120A8FFF785FA2246294630A8FFF78E
:106FC00067FA2246294620A8FFF762FA00200CE063
:106FD00030A9095C81F0360130AA115420A9095C5E
:106FE00081F05C0120AA1154401C4028F0DB01A86C
:106FF00000F002FB402230A901A800F031F93A4626
:10700000314601A800F02CF9414601A800F014FB1C
:1070100001A800F0F1FA402220A901A800F020F90F
:107020001422414601A800F01BF9414601A800F0D6
:1070300003FB40B0BDE8F08100F01F020121914048
:10704000024A430942F823107047000080E200E042
:1070500000F01F02012191404209920002F1E0225A
:10706000C2F800117047000000F01F02012191409A
:10707000024A430942F823107047000000E200E092
:1070800010B5002807DA4A07140E054A00F00F036E
:107090001B1FD45403E04A07130E024A135410BDB9
:1070A00018ED00E000E400E010B54FF480700CF043
:1070B0003EFF80B14FF480700CF042FF01200CF0D5
:1070C00049FF2048407930B901201E4948710846DF
:1070D0000168002088474FF482700CF028FF50B1FF
:1070E0004FF482700CF02CFF02200CF033FF154897
:1070F0000168012088474FF488700CF018FF50B1E8
:107100004FF488700CF01CFF10200CF023FF0D488A
:107110000168022088474FF486700CF008FF80B1A8
:107120000020094908604FF486700CF009FF082020
:107130000CF010FF00200349887108460168032005
:10714000884710BD802C0020340C004010B5002072
:107150000949086000210948C0F84411C0F84811E5
:10716000C0F84C1100200549C1F8000102493C3922
:10717000086013F0DFFD10BD401101400010014018
:1071800010B504220021024807F0D6FB10BD000014
:107190000040024010B500F033FC10BD2DE9F0476F
:1071A000074688461646C24607EB47011B4800EBD8
:1071B000C109D9F8140020B1012811D0022826D124
:1071C0001EE0484600F054FC0546B54201D20024BA
:1071D00005E0344632465146484600F090FC18E03F
:1071E000484600F045FC0546B54201D2284600E07D
:1071F0003046044622465146484600F080FC08E0EE
:1072000032465146484600F041FC044601E0002465
:1072100000BF00BF2046BDE8F087000044590020B1
:10722000F0B59AB005460E461746684600F0E4F9F8
:10723000044614B120461AB0F0BD324629466846CD
:1072400000F00EF804460CB12046F4E739466846D3
:1072500000F0F2F904460CB12046ECE70020EAE722
:1072600070B504460D4616460EB9002070BD04B137
:107270000DB90120FAE7206E10B103206066F5E732
:10728000606E08B1606EF1E71CE02878B4F91C204C
:1072900091B2491C09B2A18304F11E0188546069AE
:1072A00008306061606930B9A069401CA061A069C4
:1072B00008B901206066A08B402802D1204600F06A
:1072C00077F86D1C301EA6F1010602D0606E002812
:1072D000DBD00020CAE710B50446B4F91C003728FB
:1072E0002BDD8021B4F91C2090B2401C00B2A08399
:1072F00004F11E00815409E00021B4F91C2090B271
:10730000401C00B2A08304F11E008154B4F91C009B
:107310004028F1DB204600F04BF809E00021B4F9E9
:107320001C2090B2401C00B2A08304F11E008154C6
:10733000B4F91C003828F1DB18E08021B4F91C20D6
:1073400090B2401C00B2A08304F11E00815409E0F9
:107350000021B4F91C2090B2401C00B2A08304F1BB
:107360001E008154B4F91C003828F1DBA069010E1D
:1073700084F85610A069010C84F85710208B010A7C
:1073800084F85810217E84F859106069010E84F841
:107390005A106069010C84F85B10A08A010A84F815
:1073A0005C10217D84F85D10204600F001F810BDCE
:1073B0002DE9F047D4B00146DFF838A2DAE900C879
:1073C000DAE9029ACDF840C151AAA2E800070020EC
:1073D00032E001F11E0C1CF820C04FEA0C6C4DF895
:1073E00020C05DF820804FF0010C0CEB800901F10A
:1073F0001E0C1CF809C048EA0C4C4DF820C05DF882
:1074000020804FF0020C0CEB800901F11E0C1CF8DF
:1074100009C048EA0C2C4DF820C05DF820C04FF0A0
:10742000030808EB800901F11E0818F809804CEAEE
:10743000080C4DF820C0401C1028CADB102032E098
:10744000A0F1030C5DF82CC0A0F108085DF82880BD
:107450008CEA080CA0F10E085DF828808CEA080C74
:10746000A0F110085DF828808CEA080C4FEA4C085F
:10747000A0F1030C5DF82CC0A0F108095DF829907B
:107480008CEA090CA0F10E095DF829908CEA090C30
:10749000A0F110095DF829908CEA090C48EADC7C1F
:1074A0004DF820C0401C5028CADB0B684A688C6825
:1074B000CD680E6900201BE04FEA431C4CEAD369FB
:1074C00002EA040C25EA02084CEA080CCC44B44455
:1074D0005DF82080C444DDF840810CEB08072E469F
:1074E00025464FEA827C4CEA92041A463B46401CF1
:1074F0001428E1DB142019E04FEA431C4CEAD3685E
:1075000082EA040C8CEA050CC444B4445DF8208083
:10751000C444DDF844810CEB08072E4625464FEAAB
:10752000827C4CEA92041A463B46401C2828E3DB46
:1075300028201FE04FEA431C4CEAD36802EA040CFF
:1075400002EA05094CEA090C04EA05094CEA090CAF
:10755000C444B4445DF82080C444DDF848810CEB99
:1075600008072E4625464FEA827C4CEA92041A46CA
:107570003B46401C3C28DDDB3C2019E04FEA431C25
:107580004CEAD36882EA040C8CEA050CC444B44487
:107590005DF82080C444DDF84C810CEB08072E46D2
:1075A00025464FEA827C4CEA92041A463B46401C30
:1075B0005028E3DBD1F800C09C44C1F800C0D1F8EA
:1075C00004C09444C1F804C0D1F808C0A444C1F870
:1075D00008C0D1F80CC0AC44C1F80CC0D1F810C040
:1075E000B444C1F810C04FF0000CA1F81CC054B056
:1075F000BDE8F0877CE60300014609B90120704729
:10760000002048618861888308480860084848600D
:107610000648C04388600648C043C8600548086102
:1076200000200866486600BFE9E7000001234567BF
:1076300089ABCDEFF0E1D2C370B504460E4604B17C
:107640000EB9012070BD606E08B1606EFAE7206E61
:1076500080B92046FFF73FFE002504E0002104F139
:107660001E0041556D1C402DF8DB00206061A061BB
:107670000120206600250AE0A81054F8200005F03B
:107680000301C1F10301C900C84070556D1C142DE0
:10769000F2DB0020D6E710B513F052FA10BD10B59A
:1076A0000EF0C6FB10BD000001480249086070479B
:1076B0000090D003782D002010B506F0C3FA28B151
:1076C00092480088C0F304209149086006F00EFB40
:1076D00010B190489049486706F030FB30B18B48B4
:1076E000E0380068C0F342308C49086006F050FB77
:1076F00028B18B48006820F080708949086006F046
:107700005FFB48B10020874908604FF08041C1F815
:1077100010018249091F086006F07CFB18B10320A4
:107720007E496431086006F08DFB68B105207E4912
:10773000086001207C497831086000207A490831CE
:1077400008603F20091F086006F094FB002855D010
:107750006E48E0300068754908606C48E4300068A5
:10776000091D08606948E8300068091D086067481D
:10777000EC300068091D08606448F0300068091D9D
:1077800008606248F4300068091D08605F48F830FE
:1077900000686649203108605C48FC300068091DBB
:1077A000086063480068091D08606148001D0068A2
:1077B000091D08605E4808300068091D08605C48C3
:1077C0000C300068091D086059481030006857499E
:1077D00040310860564814300068091D086054485C
:1077E00018300068091D086051481C300068091DE8
:1077F00008604F4820300068091D086006F0F8F95D
:1078000030B14248CC38006800F04F004949086068
:1078100006F042FA40B14848006800F0010018B193
:107820006FF001004449086006F078FA28B1434837
:10783000006840F480604149086039487438006845
:1078400040F4700036497439086000BF00BF00BFC3
:10785000BFF34F8F00BF00BF00BF00BF00BF00BF1E
:10786000BFF36F8F00BF00BF00BF3548006800F056
:10787000004028B93248001D006800F00040E8B31D
:1078800001203049086000BF2F4800680028FBD065
:1078900015202B49086000BF2B4800680028FBD04A
:1078A00015212748001D016000BF274800680028F7
:1078B000FBD000202349086000BF2348006800284F
:1078C000FBD000BF00BF00BF00BF00BFBFF34F8FA2
:1078D00000BF00BF00BF1248F038006800F4E0604D
:1078E0001A490843001D0E49F039086000BF00BF67
:1078F00000BFBFF34F8F00BF00BF00E003E000BF39
:1079000000BF00BFFDE7FFF7CFFE10BD240300104E
:10791000403501400DF0ADBA00C007403C050040C5
:10792000FCED00E00C0100401056004020C5004076
:1079300024040010E40E0040000400403C17004006
:107940000012001004E5014000E401400000FA05C7
:107950002DE9F0432DED048B87B004460D46164605
:107960001F46DDF8488002A83B4632462946009073
:107970002046FFF707FB02A800F024F881464046A6
:10798000FEF764FE41EC190BB0EE491AF0EE691AED
:107990009FED0A0B00F038F9B0EE408AF0EE608AF5
:1079A00051EC180BFEF75FFEB9FBF0F100FB1190F4
:1079B00007B0BDEC048BBDE8F083000000000000C0
:1079C0000000244010B501464B7C03F00F028B5C95
:1079D0005B065C08531CCB5C44EA0344931CCB5C01
:1079E00044EA0323D41C0C5D43EA040010BD0000EC
:1079F00010B502490868804710BD00008C2C00209B
:107A000010B5124C02202061606111A0A0611349E1
:107A1000E1614FF4006121620021A1626162E162D3
:107A20000BA0A0640E49E164102121650021A1652D
:107A30006165E1650BA1E01DFEF780FD0AA120460E
:107A4000FEF77CFD2020A07110BD00002C59002005
:107A50005465726D696E616C00000000A4590020CD
:107A6000A46100205254540053454747455200003A
:107A700010B501460A69CB689A4204D88C68641E26
:107A8000E41AA01801E0D41A601E10BD2DE9F047D9
:107A90000446894617464FF0000AE56800BFD4F84F
:107AA0001080A84503D9A8EB0500461E04E0A5EB0D
:107AB0000800401CA1680E1AA068401BB04201D902
:107AC000304601E0A068401B0646BE4201D2304667
:107AD00000E0384606466168481932464946FEF7D6
:107AE000D7FCB244B144BF1B3544A068A84200D1C2
:107AF0000025E560002FD2D15046BDE8F0872DE982
:107B0000F047044689461546E668A068871BAF42E1
:107B100008D9616888192A464946FEF7B9FC7019E8
:107B2000E06010E0B8466168881942464946FEF7B1
:107B3000AFFCA5EB070809EB070142466068FEF7BA
:107B4000A7FCC4F80C80BDE8F08700000FB41CB59A
:107B50000246002007AC00290BD0491ECDE90021C8
:107B6000054B6A462146069801F040F8009A00212C
:107B700011701CBC5DF814FB1B9302000FB4084B82
:107B800010B504A902AA039801F030F8044602A92E
:107B9000002001F0CDFB204610BC5DF814FB000076
:107BA000319302007CB5044600201D46164600298C
:107BB0000BD0491ECDE90041044B6A4629463046A8
:107BC00001F014F8009A002111707CBD1B93020093
:107BD00003B401984100009850EAC12018BF042066
:107BE0004A0D18BF40F0010040F2FF72B2EB515F46
:107BF00008BF40F00200012808BF052002B070470E
:107C000000487047002E00202DE9F04D2DED040BAB
:107C10002DED0E8B96B0DDE92550279CDDF890A068
:107C200025F0004624F00048BAF1000F14BF0121EE
:107C3000002101EB4502FC4953184A1093422AD314
:107C4000002814BF0123002303EB44030B44F7492E
:107C50008B4220D358EA00019FEDF59B76D0DFF8E8
:107C6000D8B35D4503D1BAF1000F05D188E0BAF170
:107C7000000F08BF002100D0012101EB450111F5E3
:107C8000001F08D8002814BF0121002101EB440186
:107C900011F5001F0BD99DED261B9DED240B16B091
:107CA000BDEC0E8B04B0BDE8F04D00F069BE0027BE
:107CB000002DBCBFE149884521DAE1498845A8BFCC
:107CC00002271CDAC3451ADCDE4901EB28511429CE
:107CD00008DDC1F1340220FA02F101FA02F2824217
:107CE0000DD108E058B9C1F1140228FA02F101FAE5
:107CF00002F2424503D101F00101C1F1020756EA47
:107D00000A0124D1002C22DA002D18BF022F01D045
:107D1000012F0AD0022000F0A1FE16B0BDEC0E8BA0
:107D200004B0BDE8F04D00F013BE022000F096FE56
:107D300000F00EFE51EC100B81F0004141EC100BF5
:107D400016B0BDEC0E8B04B0BDE8F08D18E09FEDD1
:107D5000BEAB9FEDBF8B002871D1B848804522D1C2
:107D600005F1804010F5801008BFBAF1000F07D070
:107D7000B3450ADC002CA8BF9DED260BE0DA0DE030
:107D8000B0EE490AF0EE690ADAE7002C06DA9DED5A
:107D9000260B51EC100B81F000416FE0AE487844A7
:107DA00090ED000BCCE7D8454DD1002C48DA2EB130
:107DB00086423AD1BAF1000F42D126E0BAF1000F63
:107DC00013D0022000F04AFE00F0F6FD8DED020B0C
:107DD0009DED240B8DED000B10EE900A039961F3DD
:107DE0001E0003909DED020BAAE78DED02AB9DED09
:107DF000240B1AEE901A10EE900A8DED000B61F331
:107E00001E0003909DED020B9AE78DED028B9DED18
:107E1000240B18EE901A10EE900A8DED000B61F312
:107E20001E0003909DED020B8AE709DA9DED240BFD
:107E300051EC190B53EC102BFEF7BFFD1EE020E0B8
:107E40009DED240B7CE786421BDAB4F1804F0DD008
:107E5000A4F10050B0F1FF5013D1002D11DB9DEDC6
:107E6000240B51EC100B12F02AFC07E09DED240BC3
:107E700053EC102B51EC100B00F0C2BC41EC100B7A
:107E80005EE79DED240B51EC100B06F08BF8BAF178
:107E9000000FCDE90E0142D19FED710B46B3A6F163
:107EA000E040B0F17F600CD05E4538D1002D00DAA3
:107EB000A7B3022F0CBF01204FF0FF30FEF703FEE7
:107EC000DCE7002D01DD002C0DDA002D01DD002C9A
:107ED0001FDB002D16DA002C14DB012F08BF9FEDED
:107EE000620B3FF42DAFB0EE4A0AF0EE6A0A27E7C4
:107EF000022F18BF002D0CD0012F0AD1002DFFF644
:107F00001FAF06E0002DB8BF002C08DA012F3FF4A8
:107F100017AFB0EE480AF0EE680A11E71BE0012047
:107F200000EBE57050EA070115D0791EB0EE498AE2
:107F3000F0EE698A084308BF9FED4D8B4E4800253F
:107F4000804570DD4D494E48884514DDB0420DDB5B
:107F5000002C19DB2FE0012000F080FD16B0BDECF5
:107F60000E8B04B0BDE8F04D00F016BDB34502DC49
:107F7000002C09DC1FE0864202DA002C1BDA03E049
:107F80005E452BDD002C16DD022000F067FD00F0C1
:107F900013FD8DED020B53EC1A2B51EC180BFEF771
:107FA000E3FACDE900010399019861F31E00039003
:107FB0009DED020BC4E6022000F050FD00F00CFD28
:107FC00010EE901A18EE900A8DED020B8DED008BDD
:107FD00061F31E0003909DED020BB1E69DED0E0BCB
:107FE00053EC192B51EC100BFEF7E1FC9FED260B27
:107FF000CDE9080153EC102B9DED080B51EC100B53
:10800000FEF7B2FA9FED221B53EC112BFEF7D2FCC8
:108010009DED081B53EC112BFEF7A6FA9FED1E1BDE
:1080200053EC112B3CE08CE0FFFF1F00FFFF0F0023
:10803000000000000000F03F0000F03F0000F07F73
:108040000000404301FCFFFF000000000000F07F43
:108050000000000000000000B692010000000000D7
:108060000000000000000080000000000000F0FFA1
:10807000000000000000F0BF0000E0410000F043FD
:10808000FFFFEF3F00000000000000000000D03FB5
:10809000555555555555D53F000000000000E03FAF
:1080A000FEF788FC9DED080B41EC1A0B53EC102BEE
:1080B00051EC100BFEF758FA53EC1A2BFEF754FA5A
:1080C00041EC1A0B9FEDFE0B53EC102B9DED080BB2
:1080D00051EC100BFEF748FA41EC1B0B9FEDFA0B2D
:1080E00051EC1A0B53EC102BFEF73EFA41EC1A0B35
:1080F0009FEDF70B53EC102B9DED080B51EC100B83
:10810000FEF732FA53EC1A2BFEF751FC41EC1A0B36
:1081100051EC1B0B53EC1A2BFEF7A8FB0690CDE994
:1081200006519DED060B53EC1B2B51EC100BFEF78B
:108130003EFC53EC1A2BFEF73DFC41EC100B00F01B
:10814000A1B90020B6F5801F0EDA9FEDE30B53ECCA
:10815000102B9DED0E0B51EC100BFEF705FACDE93F
:108160000E016FF034000E4600EB2650A0F2FF37F0
:10817000C6F31300DA4940F07F6646F04056884265
:10818000D8BF002408DDD7498142C8BF012403DCE1
:108190000024A6F580167F1CD348784400EBC40069
:1081A0000F9690ED00CB9DED0E0B53EC1C2B51EC7C
:1081B000100BFEF7FCFB9DED0E0B41EC1B0B53EC83
:1081C0001C2B51EC100BFEF751FB41EC100B51EC4A
:1081D000190B53EC102BFEF7F0FB41EC1D0B51EC8F
:1081E0001B0B53EC1D2BFEF7BFF941EC1A0BBF48DC
:1081F0008DED10AB7844109590ED000B4FF00050D2
:1082000040EA660000EB84408DED080B00F500208D
:1082100009909DED080B53EC1C2B51EC100BFEF755
:10822000C6FB9DED0E1B53EC112BFEF7C3FB41EC7F
:10823000100B53EC102B9DED100B51EC100BFEF7B7
:1082400093F99DED080B41EC1C0B53EC102B9DEDAD
:10825000100B51EC100BFEF787F953EC1B2BFEF7BC
:10826000A9FB53EC1C2BFEF7A2FB53EC1D2BFEF7D6
:108270007BF941EC1C0B53EC1A2B51EC1A0BFEF75B
:1082800073F941EC1B0B9A480621B0EE4B0AF0EE55
:108290006B0A784400F0E0FAB0EE401AF0EE601A93
:1082A000B0EE41DAF0EE61DA53EC1B2B51EC1B0B14
:1082B000FEF75AF953EC1D2BFEF756F99DED100B06
:1082C00041EC1B0B53EC1A2B51EC100BFEF7CEFAC2
:1082D00053EC1C2BFEF748F953EC1B2BFEF7C6FAA8
:1082E0009DED100B41EC1B0B53EC102B51EC100BC4
:1082F000FEF73AF941EC1D0B9FED7FEB53EC1E2B83
:10830000FEF7B4FA53EC1B2BFEF7B0FA0890CDE958
:1083100008519DED080B53EC1E2B51EC100BFEF792
:1083200046FB53EC1D2BFEF742FB53EC1B2BFEF7D9
:1083300041FB9DED080B41EC1D0B53EC102B9DED0B
:10834000100B51EC100BFEF70FF941EC1B0B53EC2B
:108350001A2B51EC1D0BFEF707F99DED080B41ECB4
:108360001A0B53EC102B51EC1C0BFEF7FDF853ECE1
:108370001A2BFEF77BFA41EC1A0B51EC1B0B53EC5A
:108380001A2BFEF773FA0C90CDE90C519DED0C0BF6
:1083900053EC1B2B51EC100BFEF709FB53EC1A2B83
:1083A000FEF708FB41EC1B0B9FED550B53EC102B1C
:1083B0009DED0C0B51EC100BFEF7D6F841EC1A0BAF
:1083C0009FED510B51EC1B0B53EC102BFEF7CCF82F
:1083D00041EC1B0B9FED4E0B53EC102B9DED0C0B4A
:1083E00051EC100BFEF7C0F853EC1B2BFEF73EFAD6
:1083F00041EC100B4848784400EBC40090ED001BA2
:1084000051EC100B53EC112BFEF730FA41EC1B0B27
:108410003846FEF758FBCDE9080153EC1B2B51EC15
:108420001A0BFEF723FA41EC100B3C48784400EBA2
:10843000C40090ED00CB51EC100B53EC1C2BFEF75D
:1084400015FA9DED081B53EC112BFEF70FFA069061
:10845000CDE906519DED080B53EC102B9DED060B5D
:1084600051EC100BFEF7A3FA53EC1C2BFEF79FFA0E
:1084700053EC1A2BFEF79BFA53EC1B2BFEF79AFAE0
:1084800041EC100B9DED261B53EC102B8DED001BCA
:1084900000959DED260B51EC100BFEF765F89DED58
:1084A000000B41EC1A0B53EC102B9DED260B51ECFD
:1084B000100BFEF77CFA9DED061B53EC112B2FE001
:1084C000000000604715F73FFE822B654715F73F18
:1084D00044DF5DF80BAE543E000000000000404356
:1084E0008E9803007AB60B00AA8D0100608E010001
:1084F000E28C0100000000000000000000000840C5
:10850000000000E009C7EE3FFD033ADC09C7EE3F7B
:10851000F5015B14E02F3EBE6E8B0100288B01003D
:10852000FEF722F853EC1A2BFEF7A0F99DED060B8F
:1085300041EC1A0B53EC102B9DED000B51EC100B82
:10854000FEF712F8CDE90C019DED0C0B51EC1A0B66
:1085500053EC102BFEF78AF9CDE902010C46AA492B
:108560008C422FDB611A084318D19DED0C0B53ECA4
:10857000102B9DED020B51EC100BFEF718FA41EC9D
:108580001B0B9FEDA30B51EC1A0B53EC102BFEF7BA
:108590006DF953EC1B2BFEF7BFFA2DD2022000F031
:1085A0005DFA00F009FA10EE901A18EE900A8DEDBF
:1085B000020B8DED008B61F31E0003909DED020B0D
:1085C000FFF7BEBB944A24F00041914214D3934973
:1085D000214408437FF4EFAC9DED0C0B53EC102BC2
:1085E0009DED020B51EC100BFEF7E1F953EC1A2B49
:1085F000FEF792FA7FF6DFAC24F000408849894A02
:10860000002601EB205182422BDA481C4FF48011E6
:1086100021FA00F02044844AC0F30A517A44A1F2BE
:10862000FF3192ED000B814A8DED080BCA4020EA24
:108630000202C0F3130040F48010C1F1140120FACB
:1086400001F60992002CB8BF76429DED080B53EC61
:10865000102B9DED0C0B51EC100BFEF7A8F9CDE99A
:108660000C019DED0C0B51EC1A0B53EC102BFEF78B
:10867000FDF89FED6F0B0890CDE9085153EC102BDE
:108680009DED080B51EC100BFDF76EFF41EC1B0B41
:108690009FED690B53EC102B9DED080B51EC100B6B
:1086A000FDF762FF9DED0C0B41EC1C0B53EC102B06
:1086B0009DED080B51EC100BFEF779F953EC1A2BDA
:1086C000FEF778F99FED5E1B53EC112BFDF74CFF85
:1086D00053EC1C2BFEF7CAF841EC1A0B51EC1B0BA8
:1086E00053EC1A2BFEF7C2F8CDE902019DED020B07
:1086F00053EC1B2B51EC100BFEF759F953EC1A2BD2
:10870000FEF758F99DED020B41EC1A0B53EC102BC0
:1087100051EC100BFDF728FFCDE908014A489DED0B
:10872000080B0521784400F097F89DED081B51ECEB
:10873000100B53EC112BFDF717FF9DED021B53ECB3
:10874000112BFEF737F9CDE906019DED020B53EC35
:108750001A2B51EC100BFDF707FF53EC1A2BFEF709
:1087600085F89FED3B0B41EC1A0B53EC102B9DED64
:10877000060B51EC100BFEF71AF99DED060B41ECC0
:108780001B0B53EC102B9DED020B51EC100BFDF766
:10879000EBFE53EC1B2BFEF710F953EC1A2BFEF7F4
:1087A00006F99DED021B53EC112BFEF700F953EC7B
:1087B000192BFEF7FFF8CDE9020101EB0650011578
:1087C0000029C8BF039015DC9DED020B324651EC29
:1087D000100BFEF761F9FFF7FBF9042808BF00F062
:1087E000FBF832469DED020B51EC100BFEF754F9ED
:1087F000CDE902019DED020B51EC180B53EC102B4F
:10880000FDF7B2FEFFF73ABB000090400000000009
:10881000FE822B654715973C00CC904000346F3F9B
:1088200001FCFFFF0000E03F388A0100FFFF0F005E
:1088300000000000432EE63F396CA80C615C20BEAE
:10884000EF39FAFE422EE63F80880100000000006A
:10885000000000000000004070B504462DED028BC2
:108860004D1E00EBC500B0EE408AF0EE608A90ED40
:10887000000B35F0060017D053EC182B51EC100B01
:10888000FDF772FE41EC100B6D1E04EBC50090ED80
:10889000001B51EC100B53EC112BFDF7E7FF41ECE3
:1088A000100B35F00600E7D1022D36D0042D1CD078
:1088B000062D1CBFBDEC028B70BD53EC182B51EC88
:1088C000100BFDF751FE94ED0A1B53EC112BFDF735
:1088D000CDFF53EC182BFDF747FE94ED081B53EC2E
:1088E000112BFDF7C3FF41EC100B53EC182B51EC8F
:1088F000100BFDF739FE94ED061B53EC112BFDF721
:10890000B5FF53EC182BFDF72FFE94ED040B53EC41
:10891000102BFDF7ABFF41EC100B53EC182B51EC77
:10892000100BFDF721FE94ED021B53EC112BFDF70C
:108930009DFF53EC182BFDF717FE94ED001B53EC35
:10894000112BFDF793FFBDEC028B41EC100B70BDBA
:108950009FED070B10B553EC102B9FED070B51EC5F
:10896000100BFEF72AF841EC100B10BD00000000C0
:108970000000000000000000000000000000F03FC8
:1089800010B553EC112B51EC100BFDF76FFF41ECC0
:10899000100B10BD000000009FED050B10B553EC4F
:1089A000102B51EC100BFEF708F841EC100B10BD2A
:1089B00000000000000000009FED050B10B553EC17
:1089C000102B51EC100BFDF7CFFD41EC100B10BD3F
:1089D00000000000000000709FED050B10B553EC87
:1089E000102B51EC100BFDF7BFFD41EC100B10BD2F
:1089F000000000000000001002E008C8121F08C1BB
:108A0000002AFAD170477047002001E001C1121F0F
:108A1000002AFBD1704700000146202908DA012016
:108A200088400A4A104008B1012070470020FCE746
:108A3000402909DAA1F12000012202FA00F008B170
:108A40000120F2E70020F0E70120EEE7FC06FFBD81
:108A500000BFEFF31081084672B670470149086005
:108A600070470000002E00202DE9FF5F82B000213A
:108A7000DDE90430020DDDF840B0034318D044F6C0
:108A80001050A2F2FF3242431514119801281FD052
:108A9000A5EB0B00401C5FEA000A4FF000064E4FAA
:108AA000DFF83891B046504615D5CAF1000413E0FE
:108AB000119801244AA3012801D16FEA0B01029801
:108AC000119AC0E90031C0E9024206B0BDE8F09F4A
:108AD000CBF10000DFE704460021404A491842EB91
:108AE0000450CDE9001012E0E00707D032463B46C3
:108AF00040464946FDF738FD8046894632463B46AA
:108B000010461946FDF730FD06460F466410002C4E
:108B1000EAD1DDE90401DDE90023BAF1000F06DA4C
:108B2000FDF722FD42464B46FDF71EFD05E0FDF731
:108B300044FF42464B46FDF740FF04460E460022E6
:108B4000284BFDF7E9FF03D84FF0FF30014607E05F
:108B50000022254B20463146FDF788FEFDF7C4FF75
:108B6000102409E0002C0ADB0A220023FDF73AFC5E
:108B7000039B30321A55641E50EA0102F2D1641C84
:108B8000039AC4F111031444119A012A03D001225B
:108B900008430DD10AE0084304D000204FF0110B28
:108BA000119072E7A3EB0B056D1E0DE05B4504DD34
:108BB0004FF0000205F1010504E003DA4FF0000276
:108BC000A5F10105002AECD002981199C0E9023103
:108BD000C0E9004579E70000000014400000F03FC4
:108BE000300000000000F0430000E03F2DE9FF4F9F
:108BF00095B09B468946064600250FE2252877D189
:108C000000242746F84A0121059400E0044316F8A1
:108C1000013F203B01FA03F01042F7D130782A28B7
:108C200011D06FF02F033078A0F13002092A16D846
:108C3000059A44F0020402EB820203EB4202104464
:108C4000761C0590EFE759F8042B0592002A03DA09
:108C5000504244F40054059044F00204761C3078ED
:108C60002E2816D116F8010F44F004042A280DD03E
:108C70006FF02F023078A0F13003092B09D807EBF1
:108C8000870302EB4303C718761CF3E759F8047B0C
:108C9000761C30786C280FD006DC4C2817D068285A
:108CA0000DD06A2814D104E0742810D07A280FD18E
:108CB0000DE044F400140AE044F4801401E044F4AC
:108CC00040147278824202D104F58014761C761C1E
:108CD000307866280BD013DC582877D009DC0028C0
:108CE00075D04528F6D04628F4D047281AD19DE102
:108CF00018E0632835D0642879D0652812D195E131
:108D0000702873D008DC6728F1D069286FD06E28EE
:108D10000DD06F2806D1B5E073282CD0752875D0FA
:108D2000782874D05A46179990476D1C75E1C4F3A2
:108D30000250022809D003280DD0D9F800100428C9
:108D40000DD00D6009F1040967E1D9F80010EA17A8
:108D5000C1E90052F6E7D9F800100D80F2E70D7076
:108D6000F0E719F8041B8DF8001000208DF80100C1
:108D7000EA46012003E059F804AB4FF0FF306107E9
:108D80004FF0000102D40DE008F101018846B9421C
:108D90000FDA8045F8DB1AF808100029F4D108E052
:108DA00008F1010188468142FADB1AF8081000290F
:108DB000F6D105985B46A0EB080721463846179A7E
:108DC00000F094FA284400EB080507E04DE029E1A3
:108DD0000DE01AF8010B5A4617999047B8F10108AF
:108DE000F7D25B4621463846179A13E142E00A2241
:108DF0000092C4F302524FF0000A022A08D059F838
:108E000004CB032A4FEAEC710AD00DE029E02AE0F6
:108E100009F1070121F00702F2E802C1914609E0D9
:108E20000FFA8CFC4FEAEC71042A03D14FFA8CFC48
:108E30004FEAEC71002907DA0A460021DCF1000C48
:108E400061EB02012D2202E0220504D52B228DF8D0
:108E50000420012203E0E20701D02022F7E7904638
:108E600059E00A2102E010220DE010214FF0000A23
:108E700000910BE010224FF0000A44F00404082790
:108E8000009203E008224FF0000A0092C4F302525D
:108E9000022A05D059F804CB0021032A08D009E0A2
:108EA00009F1070121F00702F2E802C1914605E04D
:108EB0001FFA8CFC042A01D10CF0FF0C4FF00008C3
:108EC000220728D5702806D0009B83F0100353EAB0
:108ED0000A0305D00EE040228DF80420012208E0AC
:108EE0005CEA010206D030228DF804208DF80500DE
:108EF00002229046009B83F0080353EA0A030AD13A
:108F00005CEA010201D1620705D530228DF8042008
:108F10004FF001087F1E582804D034A003900EA8FB
:108F200002900DE036A0F9E753466046009AFDF73F
:108F300059FA84460398825C0298401E029002709F
:108F40005CEA0100F0D1029806A9081A00F1200A93
:108F5000600702D524F4803400E00127574502DD84
:108F6000A7EB0A0000E0002000EB0A010090059842
:108F70004144401A0590E00306D45B462146179A07
:108F8000059800F0B3F90544002706E001A85A4609
:108F9000C05D179990476D1C7F1C4745F6DBE003C9
:108FA0000CD55B462146179A059800F09FF90544B9
:108FB00004E030205A46179990476D1C0099481ECE
:108FC00000900029F5DC08E0029802995A460078E2
:108FD000491C0291179990476D1CBAF10001AAF142
:108FE000010AF1DC65E1000009280100303132336B
:108FF00034353637383961626364656600000000D5
:1090000030313233343536373839414243444546BE
:109010000000000000F058F90544761C3078002864
:109020007FF4ECAD19B02846BDE8F08F620700D49C
:10903000062709F1070222F0070CFCE80223E146AB
:1090400003F000485FEA080C02D00FF2702C0DE02C
:109050005FEA045C02D50FF2682C07E05FEAC47C8B
:1090600002D00FF2602C01E0AFF2700C4FF0FF382D
:1090700023F00043CDF850C065280CD006DC45280D
:1090800009D046281DD047283DD13DE0662818D09C
:1090900067287ED138E00021112F01DB112000E08C
:1090A000781CCDE9000106A90EA8FFF7DDFCDDE97B
:1090B0000F010E9A03910021009207F1010A049119
:1090C0004DE04FF000400097CDE9011006A90EA831
:1090D000FFF7CAFCDDE90F0203920E9B11990022F3
:1090E000DDF80CA00093049211B9791C00EB010A81
:1090F000B7EB0A0004D4C0F1FF3007F1010A049075
:10910000AAEB0700019044E0012F00DA01270021BB
:10911000112F01DD112000E03846CDE9000106A93C
:109120000EA8FFF7A1FCDDE90F010E9A03910021C3
:1091300004910092BA4621070CD40399514500DAF4
:109140008A46BAF1010F05DD009AAAF10101515CCE
:10915000302908D0B84202DA10F1040F06DA0121F2
:10916000CDE9011015E0AAF10101E9E7002805DCCD
:10917000049901440491AAEB000102E0411C51450D
:1091800000DD8A460499401A401C01904FF00040CF
:109190000290200704D40198504501DBCDF80480EB
:1091A00000208DF84F0002980DF14F07B0F1004FED
:1091B00025D02B200E9002984FF0020800280CDAE0
:1091C000404202902D200E9007E00A210298FDF700
:1091D00082FA3031029007F8011DB8F10001A8F1C0
:1091E0000108F2DC02980028EFD1791E0E98087071
:1091F000307800F0200040F0450007F8020D12A87A
:10920000C01B00F107081498007800B1012000EBA2
:109210000A01019801EBE07105984144401A401E93
:109220000590E00306D45B462146179A059800F0A6
:109230005DF805441498007818B15A46179990477C
:109240006D1CE00324D55B462146179A059800F073
:109250004DF805441CE00498002807DBDDE9030114
:10926000884203DD0098405C179901E0179930208F
:109270005A469047049805F10105401C0490019856
:10928000401E019004D12E205A46179990476D1C1C
:10929000BAF10001AAF1010ADDDC05E017F8010BC3
:1092A0005A46179990476D1CB8F10001A8F10108C2
:1092B000F4DC5B462146179A0598ABE62D000000CA
:1092C0002B000000200000002DE9F041044600259D
:1092D0001E461746880404D405E039462020B047CE
:1092E0006D1C641EF9D52846BDE8F0812DE9F041DA
:1092F000044600251E469046C80301D5302700E0ED
:109300002027880404D505E041463846B0476D1C47
:10931000641EF9D52846BDE8F0814A68002A06D0C7
:109320000A68531C0B6010704868401E4860704704
:109330000A68531C0B6010707047000010B502469D
:10934000002119E001EB81000D4B13F8300088B9C2
:10935000012001EB81030A4C04F8330001EB81008A
:10936000234603EBC000426201EB810003EBC00027
:10937000001D10BD481CC1B21429E3DB0020F8E732
:10938000F0490020014601F0030008B901207047B0
:109390000020FCE7024650680068401E084008B9FB
:1093A000012070470020FCE702460C4850F82230AC
:1093B0000B4850F8220003EB003088420CD80748D5
:1093C00050F82230064850F82200401C03EB0030D1
:1093D000884201D9012070470020FCE7542B00206F
:1093E0000039002010B50346D868884206D888188E
:1093F000401E1C69A04201D8012010BD0020FCE7DE
:109400002DE9F05F06460C462746A57994F804A09E
:109410004FF00009B6F81CB0C84612E007EB88020E
:109420005946B06902F078FC28B109F1010000F05A
:10943000FF0915B907E005B105E008F1010000F0EA
:10944000FF08D045EADB00BF0DB1D14503D02DB9EF
:10945000B9F1000F02DD0120BDE8F09F0020FBE71D
:1094600010B501220221002002F018FF044600BFBF
:109470001CB1072C01D0204610BD00BF07220221DD
:10948000012002F00BFF044600BF1CB1072C01D0E5
:109490002046F1E700BF0A220021084602F0FEFE46
:1094A000044600BF1CB1072C01D02046E4E700BFF2
:1094B0000020E1E72DE9F04707460D4607B115B951
:1094C0000020BDE8F0870835E81C20F003053C4685
:1094D0000DE02068A0EB04096068A9EB0009A9452C
:1094E00000D305E02468206808B90020E9E7F0E728
:1094F00000BF606818B9656004F1080807E060689B
:109500000619756020683060266006F10808A5F12C
:1095100008014046FCF7D5FF4046D2E710B501F000
:109520007AFA10BD1CB518480078002820D01748DA
:10953000007800281CD09820154908800CF0F4FD14
:109540001448007A00F0FE00124908720CF0FAFE8E
:1095500000200D4908700D4908700FA07A211B4B9F
:109560001B4ACDE900101BA1042003F011FF09E004
:109570001AA07D21154B164ACDE9001015A1042033
:1095800003F006FF1CBD0000422B0020432B0020EF
:109590009E2B0020D02B00206170705F6163746986
:1095A00076655F7265706F72745F66696E69736805
:1095B00065645F616E645F646973636F6E6E65633B
:1095C000745F68616E646C6572000000B4E503004E
:1095D000C01304004E4F5F54414700006170705F3C
:1095E0006163746976655F7265706F727420697308
:1095F000206E6F742072756E6E696E67206F7220B8
:10960000646576696365206973206E6F7420626F8C
:109610006E64696E6700000010B504460F2000F00C
:1096200071F910BD10B5002000F05AF810BD00000F
:109630001CB516480078E8B16420154908800CF084
:1096400073FD1448007A40F00100124908720CF0D2
:1096500079FE072008F0E2FA01200F4908700FA0F8
:109660003B21144B144ACDE9001014A1042003F04F
:109670008FFE09E013A03E210E4B0F4ACDE90010EA
:109680000EA1042003F084FE1CBD00009C2B0020D2
:109690009E2B0020D02B0020422B00206170705F99
:1096A0006163746976655F7265706F72745F7374FD
:1096B0006172740085E50300C01304004E4F5F54CF
:1096C00041470000646576696365206973206E6FA9
:1096D00074206164766572746973696E6700000056
:1096E0001CB5044620480078002832D0002C1DD13B
:1096F0001E48007878B198201D4908800CF014FDB0
:109700001CA04F21254B264ACDE9001025A104209D
:1097100003F03EFE27E025A05221204B204ACDE950
:10972000001020A1042003F033FE1CE0012C1AD10C
:10973000072008F081FA01202349087023A05A214C
:10974000164B174ACDE9001016A1042003F020FEA5
:1097500009E029A05E21114B114ACDE9001011A1A9
:10976000042003F015FE1CBD422B00209C2B002082
:109770009E2B00206170705F6163746976655F7213
:1097800065706F72745F73746F703A20333073203A
:1097900069732074696D656F757400009DE5030041
:1097A000C01304004E4F5F54414700006465766962
:1097B0006365206973206E6F7420616476657274CE
:1097C0006973696E67000000432B00206170705F51
:1097D0006163746976655F7265706F72745F7374CC
:1097E0006F703A2064657669636520697320626FE3
:1097F0006E64696E670000006170705F6163746918
:1098000076655F7265706F7274206973206E6F7415
:109810002072756E6E696E670000000070B50546B7
:109820002C4620781C285AD2DFE800F00E14171DB1
:109830002026292D35383B3E4144474A4D4E4F5056
:10984000515253545556575804F10800616806F0B8
:109850006DF845E006F066F842E004F10800616842
:1098600006F06EF83CE006F067F839E004F1080015
:10987000616806F060F833E006F059F830E0042043
:1098800008F0CCF92CE000F019FC042008F0D4F921
:10989000FFF748FE24E003F07DF821E003F028FC08
:1098A0001EE002F0F2FC1BE00FF0DDFE18E003F01A
:1098B00033F815E001F004FB12E001F063FE0FE065
:1098C000FFF7B0FE0CE00BE00AE009E008E007E07B
:1098D00006E005E004E003E002E001E000E000BF94
:1098E00000BF14B1204601F07FF970BD1CB50446DD
:1098F000009403480190DDE9000101F086F81CBDE9
:109900001D98020070B50546082001F09EF9044636
:109910001CB125702046FFF7E9FF70BD2DE9F0412D
:1099200006460F46154605F1080001F08EF904467B
:1099300054B1267065602A46394604F10800FCF7E8
:10994000A7FD2046FFF7D2FFBDE8F08110B505F076
:10995000EFFE10220CA11148FCF79AFD0F481630BB
:109960000FA10A6802604968416020220FA11030EF
:10997000FCF78EFD0948401E01F051F8144801F033
:1099800028F801F061FA10BD7475796132323763DD
:10999000393036633130646600000000BD2A002093
:1099A00033626D786673716C000000006847306246
:1099B000547A65764F707A4334326E326737374661
:1099C000426A347A6237695866316A45000000009D
:1099D000D59902003EB50446207840380E286BD257
:1099E000DFE800F0071E6A666A6A376A6A2830573D
:1099F000585F2079032812D131A04821364B374ACD
:109A0000CDE9001036A1042003F0C2FC042008F0C8
:109A100013F90120FFF764FE002008F0FFF84CE086
:109A2000606881782089C01E814202D1606805F09B
:109A300071F942E02C480078012802D1207907F022
:109A4000B7FB3AE02079FF2802D0207906F0ECFC41
:109A500033E0B4F9080025A169221F4BCDE90021AC
:109A600002901E4A1EA1042003F092FC2AA16A2241
:109A70006068194BCDE900210290184A18A1042012
:109A800003F086FC606801F0D5F9022008F0C6F802
:109A900013E000BF002005F03DFE032008F0BEF8F3
:109AA0000BE0002005F036FE032008F0B7F804E0D4
:109AB000201D00F069FE00E000BF00BF3EBD0000B9
:109AC000626F6E64696E6720616E6420636F6E6E94
:109AD000656374696E670000D3E40300EC12040050
:109AE0004E4F5F5441470000A0310020545559416A
:109AF0005F424C455F43425F4556545F54494D4574
:109B00005F5354414D50202D2074696D655F7A6F0D
:109B10006E653A2025640000545559415F424C451A
:109B20005F43425F4556545F54494D455F5354412E
:109B30004D50202D2074696D657374616D703A20ED
:109B40002564000088B007460E46144672B6012F01
:109B50000CD06FF48050384498B1B0F5405F2BD0F2
:109B60006FF440510844002848D115E043A01A2161
:109B70004A4B4BA2CDE900104DA1042003F008FC94
:109B800048E04DA01E21454B45A2CDE9001048A15B
:109B9000042003F0FDFB3DE0254628884FA2232347
:109BA0006968CDE90032CDE902103C4B3CA240A1EE
:109BB000042003F0EDFB2DE02546A8680CF0F0F939
:109BC0008046D5E90001CDE90381CDE905064AA12A
:109BD0002B22A868314BCDE90021029030A234A19C
:109BE000042003F0D5FB4EA031212C4B2CA2CDE953
:109BF00000102FA1042003F0CBFB0BE04DA0362179
:109C0000264B27A2CDE90106009129A1042003F0EB
:109C1000BFFB00BF00BF4DA03A21204B20A2CDE9E1
:109C2000001023A1042003F0B3FB00BF0BF0E2FC03
:109C300000BF00BF0BF06EFA0028FBD100BF00BFD1
:109C400000BF00BF00BF00BF00BFBFF34F8F00BF0A
:109C500000BF00BF4148006800F4E060404908438D
:109C6000001D3E49086000BF00BF00BFBFF34F8F1B
:109C700000BF00BF00BF00BF00BFFDE7534F465409
:109C80004445564943453A20415353455254494F60
:109C90004E204641494C454400000000ED0A0400B6
:109CA0002E2E5C2E2E5C2E2E5C6D61696E2E630056
:109CB0004E4F5F5441470000534F46544445564968
:109CC00043453A20494E56414C4944204D454D4F5D
:109CD00052592041434345535300000041535345DB
:109CE0005254494F4E204641494C4544206174200E
:109CF00025733A25750000004552524F52202575B4
:109D0000205B25735D2061742025733A25750D0A4B
:109D100050432061743A20307825303878000000B4
:109D2000456E64206F66206572726F722072657076
:109D30006F727400554E4B4E4F574E204641554C56
:109D4000542061742030782530385800537973746A
:109D5000656D207265736574000000000CED00E015
:109D60000000FA053EB504460020009001900290E4
:109D700002946A46002144F20100FFF7E3FE3EBD73
:109D800070B504460D46204604F05EF928B1294618
:109D9000204604F04DF9002070BD0520FCE7034685
:109DA00009B90E20704712B1501E104008B10920A9
:109DB000F8E71960501E988000209860D86000BFB6
:109DC000F0E770B504460D46204604F03DF9A18841
:109DD000884205D82946204604F049F9002070BD84
:109DE0000420FCE72DE9FF4705460E461746854847
:109DF000007803281AD084A04FF4C3718D4B8E4A8B
:109E0000CDE900108DA1042003F0C2FA00200390D8
:109E100004208DF80D00022203A9384600F0B8FD99
:109E200000F084FA012004B0BDE8F0872C462078C9
:109E3000C0B184A040F295117E4B7F4ACDE900105D
:109E40007EA1042003F0A4FA0020039004208DF8E2
:109E50000D00022203A9384600F09AFD00F066FAD0
:109E60000120E0E70221601C00F092FF0221E01CCB
:109E700000F08EFF0221601D00F08AFF0020039099
:109E80008DF80C00B4F801107A480068401C81423B
:109E900003D001208DF80D009AE0F01FB4F80310F4
:109EA000884203D002208DF80D0091E0B4F8031031
:109EB0000022E01D00F0CFFDB4F80510884203D069
:109EC00003208DF80D0083E000208DF80D00814601
:109ED0006948006860B1B4F8030067490968014443
:109EE00065480068012202EB1030B1EB003F19D346
:109EF0006148006828B94FF480514FF48C2000F07D
:109F0000BCFE5D480068012101EB10304FF48C214C
:109F100001EB00384FF48051404600F0AEFE4FF0A8
:109F2000010900BFB4F803205349096801F58C20EA
:109F3000E11D00F0EEFE18B104208DF80D0046E0A2
:109F4000B4F803004C49096808444B4908604B4881
:109F500000680968884211D94648006848A14FF452
:109F6000E972344BCDE900210290334A33A1042039
:109F700003F00EFA0320234908700CE03F48006804
:109F80003D490968884203D104201E49087002E057
:109F900004208DF80D0037480068401C35490860E2
:109FA000B4F803103A4AE01D00F05FFD384908603C
:109FB000B9F1000F0BD004232F4A0921002000F033
:109FC00083FE0423324A0A21002000F07DFE00BFF8
:109FD000022203A9384600F0DBFC9DF80D0078B1A1
:109FE0009DF80D002BA14FF4F572124BCDE9002125
:109FF0000290114A11A1042003F0CAF900F096F969
:10A00000002010E7312B00204572726F723A205405
:10A010005559415F424C455F4F54415F4441544163
:10A020002D20735F6F74615F737461746520657256
:10A03000726F72005CE503007C1304004E4F5F54A6
:10A04000414700004572726F723A20545559415F82
:10A05000424C455F4F54415F444154412D206F7441
:10A06000615F646174612D3E747970652065727200
:10A070006F720000342B0020382B0020A834002001
:10A08000735F706B675F69643A20256400000000AD
:10A090003C2B00204572726F723A20545559415F33
:10A0A000424C455F4F54415F444154412D206572FD
:10A0B000726F7269643A20256400000010B504488C
:10A0C0000078002802DD00F031F910BD0020FCE727
:10A0D000312B00207FB504460D46164652480078C5
:10A0E000042819D051A040F2F9115B4B5B4ACDE92D
:10A0F00000105BA1042003F04BF900200390032023
:10A100008DF80D00022203A9304600F041FC00F05A
:10A110000DF9012004B070BD012D01D12078C0B12E
:10A1200051A040F207214C4B4C4ACDE900104CA104
:10A13000042003F02DF90020039003208DF80D007A
:10A14000022203A9304600F023FC00F0EFF80120C2
:10A15000E0E70921002000F088FD0A21002000F03E
:10A1600084FD0821002000F080FD002003908DF880
:10A170000C004648006846490968884203D001201F
:10A180008DF80D0035E04248006800F0C7FA3F49FD
:10A190004968884203D002208DF80D0029E0002094
:10A1A0008DF80D0001203B4908703BA040F22721AB
:10A1B000294B2A4ACDE9001029A1042003F0E8F830
:10A1C0003248416837488162304800683549486202
:10A1D00001213448C1623C213830FCF772F900207B
:10A1E000304908634FF48C212E4841662E4800F018
:10A1F0006DFC022203A9304600F0CAFB9DF80D0059
:10A2000078B19DF80D0029A140F23522124BCDE91D
:10A2100000210290114A12A1042003F0B9F800F0C5
:10A2200085F8002076E70000312B00204572726F20
:10A23000723A20545559415F424C455F4F54415F3B
:10A24000454E442D20735F6F74615F737461746554
:10A25000206572726F72000071E503007C130400C8
:10A260004E4F5F54414700004572726F723A20545E
:10A270005559415F424C455F4F54415F454E442D17
:10A280002074797065206572726F7200A8340020A6
:10A29000382B0020402B00206F746120737563639E
:10A2A00065737300B4610020A5A902004572726F46
:10A2B000723A20545559415F424C455F4F54415FBB
:10A2C000454E442D206572726F7269643A20256490
:10A2D0000000000010B54FF0FF300E49086000206C
:10A2E0000D4908600D4908600D49087018210D4896
:10A2F000FCF7E7F818210C48FCF7E3F841F2883343
:10A3000000221821142000F098FB00F068FB0020C8
:10A3100010BD0000342B0020382B00203C2B0020E7
:10A32000402B0020A8340020C034002010B509487C
:10A33000007838B94FF41E710748FCF7C2F80020C6
:10A3400000F0C4FB002005490870032007F066FCFC
:10A35000002010BD402B0020B4610020312B0020D4
:10A36000F0B58BB005460F461646554800780128D3
:10A370000FD054A04FF485715F4B604ACDE90010B7
:10A380005FA1042003F004F8FFF7D0FF01200BB019
:10A39000F0BD2C46207870B15BA04FF48A71564B0B
:10A3A000564ACDE9001056A1042002F0F1FFFFF754
:10A3B000BDFF0120EBE7042104F1090000F0E8FCF7
:10A3C000042104F11D0000F0E3FC042104F121004C
:10A3D00000F0DEFCD4F81D0059490860D4F82100D3
:10A3E0004860102204F10D0155480830FCF750F880
:10A3F0001C2104A8FCF765F800208DF81000082245
:10A4000050A1601CFCF78DF818B101208DF81100E7
:10A4100017E0D4F80900B0F5827F03D802208DF848
:10A4200011000EE0D4F81D00B0F5003F03D9032061
:10A430008DF8110005E000208DF811000220204960
:10A4400008700423424A0921002000F01EFC042366
:10A450003F4A121D0A21002000F017FC3C4800680A
:10A46000CDF8120004210DF1120000F091FC3848E3
:10A470004068CDF8160004210DF1160000F088FCAC
:10A4800010210DF11A00FCF71CF81A2204A930461D
:10A4900000F07EFA9DF8110078B19DF811002DA111
:10A4A0004FF49F72144BCDE900210290134A14A17E
:10A4B000042002F06DFFFFF739FF002067E700007E
:10A4C000312B00204572726F723A20545559415F0A
:10A4D000424C455F4F54415F46494C455F494E46AB
:10A4E0004F2D20735F6F74615F73746174652065B5
:10A4F00072726F720000000026E503007C130400F6
:10A500004E4F5F54414700004572726F723A2054BB
:10A510005559415F424C455F4F54415F46494C4558
:10A520005F494E464F2D2066696C655F696E666FA8
:10A530002D3E74797065206572726F7200000000A4
:10A54000A834002033626D786673716C00000000DF
:10A55000C03400204572726F723A20545559415FE1
:10A56000424C455F4F54415F46494C455F494E461A
:10A570004F2D206572726F7269643A202564000065
:10A58000F0B587B005460F4616463D4800780228CC
:10A590000FD03CA040F24D11484B494ACDE9001084
:10A5A00048A1042002F0F4FEFFF7C0FE012007B02E
:10A5B000F0BD2C46207870B144A040F257113F4BBB
:10A5C0003F4ACDE900103FA1042002F0E1FEFFF771
:10A5D000ADFE0120EBE70421601C00F0D9FB002058
:10A5E000059006908DF81400D4F8010098B3042368
:10A5F000464A0921002000F048FB0423434A121D6B
:10A600000A21002000F041FB102301AA08210020AC
:10A6100000F03BFB10223E4901A8FBF782FF90B9F6
:10A620003C48006800F07AF83B49096888420AD142
:10A63000D4F8010037490968884204D335480068D6
:10A64000CDF8150006E00020CDF81500314908606E
:10A650003149086000BF10232D4A0821002000F076
:10A6600033FB04210DF1150000F092FB052205A932
:10A67000304600F08DF9032001490870002096E76C
:10A68000312B00204572726F723A20545559415F48
:10A69000424C455F4F54415F46494C455F4F4646EB
:10A6A0005345545F5245512D20735F6F74615F7342
:10A6B00074617465206572726F72000040E503007A
:10A6C0007C1304004E4F5F54414700004572726F87
:10A6D000723A20545559415F424C455F4F54415F97
:10A6E00046494C455F4F46465345545F5245512DB0
:10A6F0002066696C655F6F66667365742D3E74795C
:10A700007065206572726F7200000000C034002016
:10A71000B0340020382B00203C2B00202DE9F843DA
:10A72000044614B90020BDE8F883002000904FF4DF
:10A730008C25C020B4FBF0F7B4FBF0F100FB114610
:10A740004FF000080DE0C0220E49284612F01EFB13
:10A750006A46C0210B4800F088F90090C03508F126
:10A760000108B845EFD35EB1C0220649284612F071
:10A770000DFB6A463146034800F077F900903544F6
:10A780000098D0E7D834002010B586B00446207871
:10A790008DF810002078032810D020781DA14022C9
:10A7A000214BCDE900210290204A21A1042002F092
:10A7B000EFFD628820A061680CF0D0FA20780628AE
:10A7C00023D2DFE800F003090F151B21618804AADA
:10A7D000606800F03FF819E0618804AA6068FFF73C
:10A7E000BFFD13E0618804AA6068FFF7C9FE0DE0B1
:10A7F000618804AA6068FFF7F5FA07E0618804AA97
:10A800006068FFF767FC01E000E000BF00BF06B032
:10A8100010BD00006F74615F636D645F7479706573
:10A820003A2025640000000002E503007C130400C8
:10A830004E4F5F54414700006F74615F636D645F0A
:10A84000646174610000000010B5012000F038F967
:10A8500010BD000070B586B004460D46164632485D
:10A860000078D0B131A0D5213B4B3C4ACDE9001056
:10A870003BA1042002F08CFD002003900490059081
:10A8800001208DF80C00092203A9304600F080F861
:10A89000FFF74CFD012006B070BD012D01D12078DD
:10A8A000C8B131A0E3212C4B2C4ACDE900102CA1DA
:10A8B000042002F06DFD002003900490059001201B
:10A8C0008DF80C00092203A9304600F061F8FFF76B
:10A8D0002DFD0120DFE7FFF7FDFC00200390049031
:10A8E00005908DF80C0003208DF80D0000208DF8E8
:10A8F0000E004FF48270CDF80F0004210DF10F000F
:10A9000000F046FAC020ADF8130002210DF113004B
:10A9100000F03EFA092203A9304600F039F8012080
:10A92000014908700020B6E7312B00204572726F94
:10A93000723A20545559415F424C455F4F54415F34
:10A940005245512D20735F6F74615F73746174653C
:10A95000206572726F72000012E503007C13040020
:10A960004E4F5F54414700004572726F723A205457
:10A970005559415F424C455F4F54415F5245512DFF
:10A9800020706172616D206572726F72000000004C
:10A9900070B504460E46154666606580204600F098
:10A9A000C3F970BD10B50446FFF7C0FC10BD2DE91A
:10A9B000F84304460D4616461F46DDF820803B4608
:10A9C000324629462046CDF8008010F094FCBDE8C0
:10A9D000F88310B50446204610F0F4FC10BD7CB599
:10A9E00000200090019001208DF8000069460220AF
:10A9F00067DF044600BF254625B100BF2846FFF7A4
:10AA0000B1F900BF00BF20467CBD13B5DDE90001F0
:10AA100010F048FF1CBD10B511F052FA10BD10B572
:10AA20000446204612F0C8FA10BD70B504460D4623
:10AA30002946204602F00CF870BD2DE9F04104468D
:10AA40000D4616461F463B463246294620460BF029
:10AA5000C7FEBDE8F08170B504460D461646324685
:10AA60002946204602F002F870BD70B504460D4636
:10AA7000164632462946204602F018F870BD0000FE
:10AA80001CB507A04FF49C71094B0A4ACDE9001090
:10AA900009A1042002F07CFC10F0EAFF00201CBD9C
:10AAA00064657669636520726573657400000000F3
:10AAB0002DE60300581404004E4F5F544147000038
:10AAC00010B50446204609F007FB10BD10B504463A
:10AAD000204609F0DFFB10BD70B505460C4600F0BE
:10AAE000A1F8032809D1A2B2294607A00CF036F933
:10AAF0002146284610F0E3FF70BDA2B2294604A00B
:10AB00000CF02CF90120F7E764705F72737000009D
:10AB100064705F7273705F756E636F6E6E000000BD
:10AB2000FEB504460E46154600F07CF8032815D104
:10AB300013A0D621164B174ACDE90104009116A1A6
:10AB4000042002F025FCAAB2314615A00CF006F94B
:10AB50002A463146204610F0EEFFFEBD08A0DA215D
:10AB60000B4B0C4ACDE9010400910BA1042002F02B
:10AB70000FFCAAB231460FA00CF0F0F80120ECE770
:10AB800074696D657374616D703A2025640000000E
:10AB9000FAE50300581404004E4F5F54414700008B
:10ABA00064705F7273705F74696D657374616D70EA
:10ABB0000000000064705F7273705F74696D65738C
:10ABC00074616D705F756E636F6E6E002DE9F0419C
:10ABD00004460D4616461F463B4632462946204649
:10ABE00003F0ECF9BDE8F08110B50446204611F001
:10ABF00030F910BD7CB5054605B97CBD68466DDFF2
:10AC0000044600BF264626B100BF3046FFF7AAF82B
:10AC100000BF00BFDDF801002860BDF80500A88076
:10AC200000BFEAE710B510F0D7FD10BD10B504461F
:10AC300020460CF045F810BD10B50CF04DF810BDD5
:10AC400010B50CF087F8002010BD10B50446A0B276
:10AC500012F054F810BD70B504460D461646324643
:10AC60002946204601F048FF70BD70B504460D46E8
:10AC7000294620460FF0ACF970BD70B504460D466C
:10AC80002946204612F06CF870BD2DE9F0410446CB
:10AC90000D4616461F463B463246294620460FF0D3
:10ACA0007BFABDE8F08110B50BF09CFE00200FF0A0
:10ACB000E7F901200FF0E4F902200FF0E1F9032099
:10ACC0000FF0DEF9002010BD2DE9F04104460D46DD
:10ACD00016461F463B463246294620460FF0C6FA26
:10ACE000BDE8F08110B502214FF4D4200FF072FCC2
:10ACF00002214FF4D8200FF06DFC02214FF4DC202C
:10AD00000FF068FC02214FF4E0200FF063FC0020FC
:10AD100010BD70B504460D461646324629462046FB
:10AD200012F044F870BD00003EB5044620780328B8
:10AD300010D0207809A1E7220D4BCDE90021029027
:10AD40000C4A0DA1042002F023FB62880CA061686C
:10AD50000CF004F8204612F03BF83EBD6F74615FC2
:10AD60007273705F747970653A202564000000008A
:10AD70001CE60300581404004E4F5F544147000086
:10AD80006F74615F7273705F6461746100000000D2
:10AD900070B504460D462946204601F0C2FE70BD3E
:10ADA00010B5044620460CF043F810BD70B50446BB
:10ADB0000D46164632462946204612F0F7FC70BD75
:10ADC00070B504460D46164632462946204612F016
:10ADD0005FFD70BD70B504460D46164632462946E5
:10ADE000204612F0A7FD70BD2DE9F04104460D4646
:10ADF00016461F463B4632462946204612F07AFA4E
:10AE0000BDE8F08110B50446204612F084FA10BD6A
:10AE100010B50446204612F088FA10BD10B510F0A7
:10AE2000BBFD10BD70B504460D462946204612F004
:10AE3000D7FB70BD10B5044620460CF0C5FA0020C3
:10AE400010BD03460020704710B5052006F0E6FE51
:10AE500010BD00001CB509A0B521104B104ACDE96A
:10AE6000001010A1042002F093FA4FF0FF300F49B8
:10AE7000088001200E4908701CBD00006170702020
:10AE800074657374206D6F646520656E74657220DF
:10AE9000737563636573732100000000E6E50300CA
:10AEA000101404004E4F5F5441470000482B00200F
:10AEB000452B002010B504460D20FEF723FD10BDE4
:10AEC0000120014908707047462B002070B50446E8
:10AED0000D4616460C48007828B924B93246294652
:10AEE000204600F015F803F083FD60B15CB107481F
:10AEF000B0F90000844206D0044804803246294656
:10AF0000204600F005F870BD462B0020482B00209D
:10AF10002DE9F0419AB004460D46174603F068FD4E
:10AF200018B914B11AB0BDE8F0810A2C7AD2DFE862
:10AF300004F005101F4C52586C7A8FBAFFF78AFF45
:10AF40005BA000681990012219A9204600F01EFBA1
:10AF5000ABE0182257A114A8FBF79AFA14A8FBF744
:10AF6000D9FA86B2324614A9204600F00FFB9CE0C5
:10AF70003A4629462046FFF764FFC6B286B953A376
:10AF80000FCBCDE91823CDE9160116A8FBF7C2FABD
:10AF90001FFA80F8424616A9204600F0F7FA13E09F
:10AFA0004EA3D3E90020D3E90213CDE91813CDE96C
:10AFB000162016A8FBF7AEFA1FFA80F8424616A92B
:10AFC000204600F0E3FA00BF6FE03A4629462046EB
:10AFD00000F00AFB69E03A462946204600F0BCF83A
:10AFE00063E0062006F01AFE38A191E80D00C9685A
:10AFF00016AE0DC6199116A8FBF78CFA86B232462A
:10B0000016A9204600F0C2FA4FE038A338A240A1AA
:10B0100001A8FCF7B3FDC6B2324601A9204600F0F4
:10B02000B5FA42E040E0132305F1080205210020B3
:10B03000FFF74AFE25A30FCB16AE0FC616A8FBF7E7
:10B0400069FA86B2324616A9204600F09FFA2CE033
:10B050003A462946204600F0C3FA064616F1500F3C
:10B060000CDD724235A101A8FCF788FD00F0FF0855
:10B07000424601A9204600F089FA13E017A3D3E95C
:10B0800001211868DB68CDE91813CDE9160216A86E
:10B09000FBF740FA1FFA80F8424616A9204600F056
:10B0A00075FA00BF01E000E000BF00BF00BF39E754
:10B0B000010000007B22726574223A747275652C5F
:10B0C00022686964223A22227D0000007B22726598
:10B0D00074223A747275657D000000007B227265EF
:10B0E00074223A66616C73657D000000312E340075
:10B0F000747579615F626C655F6C6F636B5F636FC2
:10B100006D6D6F6E5F626B33343331710000000020
:10B110007B22726574223A747275652C226669729C
:10B120006D4E616D65223A222573222C226669726A
:10B130006D566572223A222573227D007B2272654C
:10B1400074223A747275652C2272737369223A22E2
:10B150002564227D000000002DE9F04105460E46E1
:10B1600017460024E248E3A109680160042302466F
:10B1700007210020FFF7A8FD0423DD4A121D072147
:10B180000020FFF782FD0422D949091D081FFBF7A3
:10B19000C8F900287ED17B222046611CCCB2D4495C
:10B1A0000A5422222046611CCCB2D1490A540846D6
:10B1B0002044D2A10A88028089788170E01CC4B240
:10B1C00022222046611CCCB2C9490A543A222046A8
:10B1D000611CCCB2C6490A5408462044C5A109687E
:10B1E0000160201DC4B22C222046611CCCB2C04993
:10B1F0000A5422222046611CCCB2BD490A5408469A
:10B200002044BFA10A68026089888180A01DC4B261
:10B2100022222046611CCCB2B5490A543A2220466B
:10B22000611CCCB2B2490A5422222046611CCCB225
:10B23000AF490A5408192022B349FBF729F904F150
:10B240002000C4B222222046611CCCB2A8490A5474
:10B250002C222046611CCCB2A5490A542222204649
:10B26000611CCCB2A2490A5408462044A7A10A880E
:10B27000028089788170E01CC4B222222046611CC1
:10B28000CCB29B490A543A222046611CCCB2984960
:10B290000A5400E01EE122222046611CCCB29449EF
:10B2A0000A5408460219132305210020FFF7EDFC7C
:10B2B00004F11300C4B222222046611CCCB28C4996
:10B2C0000A542C222046611CCCB289490A542222FD
:10B2D0002146601CC4B28648425420448CA10968AF
:10B2E0000160201DC4B22046611CCCB280490A54C2
:10B2F0003A222046611CCCB27D490A5422222046C3
:10B30000611CCCB27A490A54081910227E491639B8
:10B31000FBF7BEF804F11000C4B222222046611CE3
:10B32000CCB273490A542C222046611CCCB270491D
:10B330000A5422222046611CCCB26D490A540846A8
:10B34000204475A10A88028089788170E01CC4B20B
:10B3500022222046611CCCB265490A543A2220467A
:10B36000611CCCB262490A5422222046611CCCB234
:10B370005F490A54084602190C2306210020FFF7F2
:10B3800084FC04F10C00C4B222222046611CCCB221
:10B3900057490A542C222046611CCCB254490A5405
:10B3A00022222046611CCCB251490A54084620444E
:10B3B0005AA10A6802604968416004F10800C4B2F9
:10B3C00022222046611CCCB249490A543A22204626
:10B3D000611CCCB246490A5422222046611CCCB2E0
:10B3E00043490A5408191C224FA1FBF751F804F1F4
:10B3F0001C00C4B222222046611CCCB23C490A5433
:10B400002C222046611CCCB239490A542222204603
:10B41000611CCCB236490A54084601194AA0026898
:10B420000A6082888A8080798871E01DC4B22222F5
:10B430002046611CCCB22E490A543A222046611C97
:10B44000CCB22B490A5422222146601CC4B228489F
:10B45000425420443EA10A88028089788170E01C11
:10B46000C4B222222046611CCCB221490A542C22AB
:10B470002046611CCCB21E490A5422222046611C7F
:10B48000CCB21B490A540846011932A002680A606E
:10B4900042684A60007A087204F10900C4B22222AC
:10B4A0002046611CCCB212490A543A222146601C43
:10B4B000C4B20F484254204429A10A6802600979A5
:10B4C0000171601DC4B27D222046611CCCB20849C6
:10B4D0000A5405E00D2224A10548FAF7D9FF0D24EE
:10B4E00022460349284600F051F8BDE8F0810000EB
:10B4F0009835002074727565000000007265740054
:10B5000061757A4B657900002A77002068696400CC
:10B5100075756964000000006D6163006669726D95
:10B520004E616D6500000000747579615F626C6545
:10B530005F6C6F636B5F636F6D6D6F6E5F626B33BC
:10B5400034333171000000006669726D5665720017
:10B55000312E340070726F645F7465737400000084
:10B5600066616C73650000007B22726574223A6626
:10B57000616C73657D00000010B504460E20FEF777
:10B58000C1F910BD10B5FFF77BFA10BD2DE9F041F0
:10B5900006460F4614460025662010490870AA206A
:10B5A0004870002088700846C670201208714C71DF
:10B5B000224639460948801DFAF76AFFA01D85B268
:10B5C00029460648FFF731FA04494855681C85B2F8
:10B5D00029460248FFF726FCBDE8F0819836002096
:10B5E00003466FF031007047F0B587B006460C4651
:10B5F0001746012004F08EF8202204F10B012448A4
:10B60000FAF746FF102204F1350121481638FAF7FF
:10B610003FFF11F0FBFD16211D486230FAF751FF84
:10B6200011F02EFE05AA0C2104F14E00FFF7C8FB15
:10B6300001281CD105A8FFF7B3FB0C2304F14E022F
:10B6400006210020FFF740FB12A2D2E90030D2E928
:10B650000212CDE90130CDE9031201A8FAF75AFF31
:10B6600085B22A4601A90320FFF790FF0DE00DA344
:10B670000FCB01AD0FC501A8FAF74CFF85B22A46E2
:10B6800001A90320FFF782FF00BF07B0F0BD000053
:10B690002A7700207B22726574223A747275657D68
:10B6A000000000007B22726574223A66616C73654B
:10B6B0007D00000010B503460C4600BF0B488078A3
:10B6C00008B9082010BD00BF0AB90720FAE70BB976
:10B6D0000720F7E71868007C08B10820F2E719682E
:10B6E000002008744C744A6100BFEBE72C50002026
:10B6F00010B50DF0FBFF00200F49087048700B20BB
:10B70000887000200D4908600D4908700D490870C7
:10B710001420FBF791FC06211420FBF7B1FC142048
:10B72000FBF796FC00200DF0B7FF0DF0AFFF0649C8
:10B730000860002010BD00002C500020A42C002028
:10B74000B42C0020B52C0020A82C00202DE9F041BD
:10B7500004460E461746254600BF1048807810B9AB
:10B760000820BDE8F08100BF0CB90820F9E7052EDC
:10B7700001D20720F5E7686908B90820F1E7687C7D
:10B78000012801D1304600E0002080463B46424679
:10B79000314628460FF07AFAE3E700002C500020EB
:10B7A00070B50446254600BF0848807808B90820CF
:10B7B00070BD00BF0CB1686908B90820F8E7002027
:10B7C0002874022128460FF093FAF1E72C5000204C
:10B7D0002DE9F04104460F48077821460E48FEF750
:10B7E000CFFA804697B100200A49087001220B4920
:10B7F0000B4808F0DFFD054600BF2E4626B100BF0E
:10B800003046FEF7AFFA00BF00BF00BF4046BDE8BC
:10B81000F0810000D62C002038510020D52C0020CB
:10B82000BC2C00202DE9F04188B004460E46174696
:10B8300098462B4807601EB9072008B0BDE8F08184
:10B84000B08882B227483168FEF7A9FA054600BFE2
:10B85000284600B1F1E700BFB08982B22248B16842
:10B86000FEF79DFA054600BF284600B1E5E700BF98
:10B8700020221E496846FAF70BFE60690690207C7C
:10B8800008B1012000E000208DF814008DF81C8024
:10B89000607C08B10E2000E000208DF81500E06803
:10B8A0000290A06803902068019060680090104AA0
:10B8B0006946104808F038FD054600BF284600B12B
:10B8C000BBE700BF00200C4908702068401C28B16D
:10B8D00001220A49074808F06DFDAEE70020ACE7F9
:10B8E000D02C00203851002048510020D80B0400F3
:10B8F00029DA0300BC2C0020D62C0020D52C0020F7
:10B900002DE9F041054629461448FEF75AFA064645
:10B9100006BB134C002720781249085C20B1201D7B
:10B920000CF02CF9074608E020780E49085C20B995
:10B9300004F10C000BF0D6FF074600BF57B90A49C7
:10B940000648FEF71DFA28B901220749044808F005
:10B9500053FD06463046BDE8F08100004851002006
:10B96000BC2C0020782C0020D42C002010B50446DC
:10B9700020460EF0A1F810BD70B5044625460E48CD
:10B980008068B0B1ADB9FDF763F806460A480068B3
:10B990000A490860084840684FF0E021C1F80401F6
:10B9A0000020054988601EB900BF62B600BF00BF15
:10B9B00000BF00BF70BD00005851002000E100E052
:10B9C0002DE9F04F0346164600BF0020844680460E
:10B9D00005460446012901D0022911D1581E6427C9
:10B9E00090FBF7F044B2581E90FBF7F907FB1900E3
:10B9F00045B201F10C004FFA80F84FFA86FC0DE0D9
:10BA0000642093FBF0F044B2642093FBF0F700FB5A
:10BA1000173045B24FFA81F84FFA86FC08F1010958
:10BA20004FF01A0A09FB0AF94FF00A0A99FBFAF9D2
:10BA30004FEAE57A05EB9A7A05EBAA0A4FEAE47B2E
:10BA400004EB9B7B0AEBAB0A4FF0020B0BFB14AA37
:10BA5000D144E144A9F10102002A05DD072092FB4F
:10BA6000F0F700FB172005E0072092FBF0F700FB42
:10BA70001720C01D0246D0B2BDE8F08F01464FF43A
:10BA8000C87091FBF0F200FB121008B9012070475A
:10BA9000642091FBF0F200FB121008B90020F6E7D9
:10BAA000CA1701EB92729210A1EB82020AB901202F
:10BAB000EDE70020EBE7000070B504460D460CB141
:10BAC0000C2C07DD2846FFF7D9FF094949780844BF
:10BAD000C0B270BD022C03D0601E0549085CF8E7B7
